:020000040800F2
:10000000580800208D1C000835140008371400081B
:100010003B1400083F1400084314000800000000CF
:10002000000000000000000000000000471400086D
:1000300049140008000000004B1400084D1400088B
:10004000A71C0008A71C0008A71C0008A71C000884
:10005000A71C0008A71C0008A71C0008A71C000874
:10006000A71C0008A71C0008A71C0008A71C000864
:10007000A71C0008A71C0008A71C0008A71C000854
:10008000A71C0008A71C0008A71C0008A71C000844
:10009000A71C0008A71C0008A71C0008A71C000834
:1000A000A71C0008A71C0008A71C0008A71C000824
:1000B000A71C0008A71C0008B9120008A71C00080C
:1000C000A71C0008A71C0008A71C0008A71C000804
:1000D000A71C0008ED1B0008A71C00089D1A0008BB
:1000E000A71C0008A71C0008A71C0008A71C0008E4
:1000F000A71C0008A71C0008A71C0008A71C0008D4
:10010000A71C0008A71C0008A71C0008A71C0008C3
:10011000A71C0008A71C0008A71C0008A71C0008B3
:10012000A71C0008A71C0008A71C0008A71C0008A3
:1001300000F002F800F04BF80AA090E8000C8244AE
:100140008344AAF10107DA4501D100F040F8AFF28B
:10015000090EBAE80F0013F0010F18BFFB1A43F0A5
:10016000010318475C5600007C560000103A24BF7B
:1001700078C878C1FAD8520724BF30C830C144BF0C
:1001800004680C607047000000230024002500264E
:10019000103A28BF78C1FBD8520728BF30C148BFEA
:1001A0000B607047642903F00F83732903F0EF831A
:1001B000002070471FB503F0BDFC040000200021A3
:1001C00004F0AAFB401C60601FBD10B510BD03F019
:1001D0008CFC1146FFF7EEFF00F064FA03F0BCFC64
:1001E00003B4FFF7F2FF03BC01F0A2FC2DE9FF5FAF
:1001F000ACB004460D4600224FF08043204629460D
:1002000003F074FECDE91E0100224FF08043DDE9CA
:100210002E0103F06BFECDE91C0100224FF080435C
:10022000FE4903C903F062FECDE91A01DDE91C2392
:10023000DDE91E0105F042F8CDE90C01DDE91A23E4
:1002400004F016FE0022F64BCDE90E0104F07AFB15
:10025000CDE92A0120462946DDE92E2305F02EF8B6
:10026000CDE90E01ED480CC800204FF0804104F0AC
:10027000FFFDCDE90C01DDE90E2304F0F9FDCDE928
:100280002801DDE91E23DDE91A0104F0F1FD002259
:10029000E34BCDE90E0104F055FBCDE92601DF4823
:1002A0000CC800204FF0804104F0E2FD22462B46AE
:1002B000CDE90E0104F0DCFD8046894600224FF0B6
:1002C00080434046494603F011FE00224FF0804330
:1002D000CDE90C01DDE9280103F008FECDE90A01B2
:1002E000DDE90C2304F02EFB0022CE4BCDE90E01FC
:1002F00004F0E4FFCDE9240142464B460020C94901
:1003000004F0B6FDCDE90E0100204FF08041DDE99B
:10031000262304F0ADFD42464B46CDE9060104F02C
:10032000A7FDCDE90A0100204FF08041DDE92A2335
:1003300004F09EFDCDE90601DDE9282304F098FDD7
:10034000CDE90801DDE90A2304F0FCFACDE90C014E
:10035000DDE90E2304F0B2FFCDE9220100224FF0C7
:1003600080434046494603F0C1FD00224FF08043E0
:10037000CDE90E01DDE9260103F0B8FD00224FF0C2
:100380008043CDE90A01DDE92A0103F0AFFDCDE9A3
:100390000801DDE90A2304F0D5FACDE90C01DDE915
:1003A0000E2304F08BFFCDE9200100204FF08041A7
:1003B000DDE9242304F05CFDCDE90E01002099491C
:1003C000DDE9242304F054FDCDE90001DDE920231B
:1003D00004F04EFDCDE90401DDE922231046194663
:1003E00004F046FDCDE90201DDE9042304F066FFD7
:1003F000CDE9060104F06AFACDE90A010020894935
:100400004942DDE9222304F033FDCDE90801DDE9AD
:100410000A2304F053FFCDE90C01DDE90E2304F0BB
:100420004DFB82468B467D480CC82046294604F089
:100430001FFD52465B46CDE90E0104F083FACDE97B
:1004400018017649DDE92E2303C904F011FD524657
:100450005B46CDE90E0104F075FACDE9160152466E
:100460005B4600206E4904F06DFACDE90C01DDE930
:10047000182304F067FA00226B4BCDE90E0104F05B
:10048000F7FCCDE914010022654BDDE9140104F00D
:1004900015FFCDE90A01DDE91823DDE9140104F0B7
:1004A0000DFF52465B46CDE90601DDE9140104F07B
:1004B00005FFCDE90201DDE9142304F0D9FCCDE903
:1004C0000401DDE9062304F0D3FCCDE90801DDE9F0
:1004D0000A2304F0CDFCCDE90C0104F0F7F9002269
:1004E0004FF08043CDE90E0104F0C2FCCDE91201CA
:1004F00000204B49DDE9182304F024FACDE90C0172
:10050000DDE9162304F01EFA0022474BCDE90E0167
:1005100004F0AEFC06460F4630463946DDE91623A8
:1005200004F0CCFECDE90A0130463946DDE9182356
:1005300004F0C4FE00223A4BCDE9060130463946AC
:1005400004F0BCFE32463B46CDE9020104F090FCCB
:10055000CDE90401DDE9062304F08AFCCDE90801B8
:10056000DDE90A2304F084FCCDE90C0104F0AEF9C6
:1005700000224FF08043CDE90E0104F079FCCDE973
:1005800010012A4ADDE9120103C2294ADDE91001FE
:1005900003C230B0BDE8F09F30B585B005460C46CB
:1005A0000121042001F0BBFE0121082001F0AAFE78
:1005B0004FF46070ADF8100028208DF8130004A9E6
:1005C0001C4801F0E3FB4FF460711A4801F08DFC08
:1005D000ADF80850ADF804400020ADF80A00ADF8C1
:1005E000060001A9144802F037FA042013490880D4
:1005F00000204880012088800020C88008810E48A3
:1006000002F0BDFC08200D49088000204880012030
:1006100088800020C8800881074811E00000002081
:100620000000F03F000010400000E03F10000020FC
:1006300018000020000C0140000800405800002075
:1006400002F09DFC0C20FD4908800020488001201C
:1006500088800020C8800881F94802F090FC1E20A4
:100660008DF8000002208DF8010000208DF80200B6
:1006700001208DF80300684602F0B1F801221C2128
:10068000EF4802F060FD00220121ED4802F05BFD21
:100690000021EB4802F0D0FF0121E94802F038FDCB
:1006A00005B030BDADF5227D00201B901A90199049
:1006B0001890179000BF00BF00BF01F07DF901F056
:1006C00011F94FF4E13001F042FA00F0B1FF01F00E
:1006D000A2F84FF4E13001F075F947214FF6FF70B1
:1006E000FFF75AFF80E0D7A001F0CDF95BE0D648D4
:1006F0000078032857D101F0A9F80E9000BF00211F
:10070000D248D34AC2E90010D24800881B90D14891
:1007100040881A90CF48808819901B991998401AE0
:100720001890DDE91A01401A1790179804F04DFB54
:10073000C94ACA4BCDE90C0104F09AFBCDE914017A
:10074000189804F042FBC44AC44BCDE90C0104F0F4
:100750008FFBCDE91201DDE91223DDE91401FFF77A
:1007600045FDBF4830C8BF48C0C80DE0BE4800784E
:1007700050B1BD480078462803D10020BA4908701E
:1007800003E00020B8490870F0E700BF4FF4FA70AA
:1007900001F0E5F801221C21A94802F0D4FC002058
:1007A000A949087000E0A2E700BF4FF03332AF4B19
:1007B0002046294604F020FB16D24FF03332AB4BD3
:1007C0003046394604F018FB0ED2A94AA94B204600
:1007D000294604F04BFC07D2A54AA64B30463946C1
:1007E00004F044FC00D200E07DE700BFA04AA24B29
:1007F0002046294604F03AFC3BD800229F4B204675
:10080000294604F0F9FA34D200229C4B304639468E
:1008100004F0F2FA2DD2964A974B3046394604F04E
:1008200025FC26D80022964B2046294604F020FBC2
:10083000CDE90C0104F09AFA1F9064211F984843F7
:100840001F9000228E4B3046394604F011FBCDE953
:100850000C0104F08BFA1E90DDE91E0108441D9086
:1008600088A164A81D9A02F03DFF64A986A002F049
:100870002DFF9D959C949B979A9685A001F003F976
:100880000DE07948007850B177480078462803D1C8
:1008900000207549087003E0002073490870F0E7F4
:1008A00000BFFCE349E07B48008800F40040D0B37F
:1008B000784800787D907D98032835DD01201C90D4
:1008C0007D98C11700EB917189108E9100201190D5
:1008D00024E07149119811F820104BAA02F8101069
:1008E00011988000401C6C49095C11984000401C24
:1008F000115411988000801C6749095C32AA119834
:1009000002F8101011988000C01C6349095C11980E
:100910004000401C11541198401C11908E99119860
:100920008842D6DB05E008E000201C905A48007899
:100930000F9000205749088000E0B4E700BF1C98E2
:1009400001287AD100201090EFE34BA9109811F8FC
:1009500010008DF8A80010984000401C085C8DF82D
:10096000A90032A9109811F810008DF8880010988D
:100970004000401C085C8DF889002AA802F05EFF48
:10098000219022A802F05AFF2090219804F01DFA2D
:10099000A191A09000223A4BA199A09804F08EF862
:1009A000A191A090209804F010FA9F919E900022AF
:1009B000334B9F999E9804F081F89F919E90BAE3E3
:1009C000D4E020A001F05FF88FE01F4800780328F2
:1009D00066D100F03BFF0E9000BF00202F491C4A5B
:1009E00003C21C4800881B901A4840881A90194876
:1009F000808819901B991998401A1890DDE91A01FE
:100A0000401A1790179804F0E0F9134A134BCDE9F8
:100A10000C0104F02DFACDE91401189804F0D5F971
:100A20000D4A0E4BCDE90C0104F022FACDE912017A
:100A3000DDE91223DDE9140133E0C6E358000020AC
:100A4000000800404E0000000E00002000C075406D
:100A500000000020080000208DEDB5A0F7C6B03ED4
:100A60001000002018000020380000203333F33F2E
:100A70009A9999999999A93F9999B93F0000F03F9E
:100A8000000059402564000025730D0A0000000095
:100A900047313000400000202A01002000B075409E
:100AA00023E0FFF7A3FBFE4830C8FE48C0C80DE0B6
:100AB000FD48007850B1FC480078462803D100205A
:100AC000F949087003E00020F7490870F0E700BF1B
:100AD0004FF4FA7000F043FF01221C21F34802F0AA
:100AE00032FB0020F249087000E06EE700BF4FF0D3
:100AF0003332F04B2046294604F07EF936D24FF0CF
:100B00003332EC4B3046394604F076F92ED2EA4ABD
:100B1000EA4B2046294604F0A9FA27D2E64AE74BD9
:100B20003046394604F0A2FA20D2204629469D9B41
:100B30009C9A04F0C3FB21F000414FF03332E04BAC
:100B4000CDE90C0104F058F910D2304639469B9B90
:100B50009A9A04F0B3FB21F000414FF03332D84BA6
:100B6000CDE90C0104F048F900D200E029E700BF0C
:100B7000D44AD54B2046294604F078FA3DD80022C5
:100B8000D24B2046294604F037F936D20022CF4B0B
:100B90003046394604F030F92FD2CA4ACA4B3046A3
:100BA000394604F063FA28D80022C94B204629466A
:100BB00004F05EF9CDE90C0104F0D8F81F9064212F
:100BC0001F9848431F900022C14B3046394604F01D
:100BD0004FF9CDE90C0104F0C9F81E90DDE91E01C2
:100BE00008441D90AFF2641164A81D9A02F07AFDCA
:100BF00064A9AFF26C1002F069FDA046A946B246A6
:100C0000BB46B44AB44BA199A09803F09BFE424660
:100C10004B46CDE90C0104F029FA27D2AD4AAE4B80
:100C2000A199A09804F04AFB42464B46CDE90C013D
:100C300004F0E2F81AD2A74AA74B9F999E9803F0B6
:100C400081FE52465B46CDE90C0104F00FFA0DD24D
:100C5000A04AA14B9F999E9804F030FB52465B46F8
:100C6000CDE90C0104F0C8F800D265E240464946DF
:100C70009D9B9C9A04F022FB21F00041CDE90A01E2
:100C8000504659469B9B9A9A04F018FB21F000416C
:100C9000CDE90801DDE90A2303F010FFCDE90C01DD
:100CA00003F012F89591949000208C49959B949AAA
:100CB00004F0DEF88A4A8B4BCDE90C0103F0FEFE0E
:100CC000959194909599949804F050F8919050468D
:100CD00059469B9B9A9A04F0F1FA00221346CDE9FB
:100CE0000C0104F0C3F90ED8404649469D9B9C9ADE
:100CF00004F0E4FA00221346CDE90C0104F0B6F941
:100D000001D291989190504659469B9B9A9A04F033
:100D1000D5FA00221346CDE90C0104F0A7F910D250
:100D2000404649469D9B9C9A04F0C8FA002213460F
:100D3000CDE90C0104F060F803D89198C0F1B4003B
:100D40009190504659469B9B9A9A04F0B7FA00221C
:100D50001346CDE90C0104F04FF80FD84046494640
:100D60009D9B9C9A04F0AAFA00221346CDE90C013F
:100D700004F042F802D29198B4309190504659460E
:100D80009B9B9A9A04F09AFA00221346CDE90C0133
:100D900004F032F810D2404649469D9B9C9A04F0DC
:100DA0008DFA00221346CDE90C0104F05FF903D857
:100DB0009198C0F5B470919042464B46A199A09885
:100DC00004F07CFA21F0004152465B46CDE90A016D
:100DD0009F999E9804F072FA21F00041CDE9080134
:100DE000DDE90A2303F06AFECDE90C0102F06CFF95
:100DF0009991989000203949999B989A04F038F875
:100E0000374A384BCDE90C0103F058FE9991989080
:100E10009999989803F0AAFF979052465B469F993C
:100E20009E9804F04BFA00221346CDE90C0104F021
:100E30001DF90ED842464B46A199A09804F03EFAFF
:100E400000221346CDE90C0104F010F901D2979865
:100E5000979052465B469F999E9804F02FFA002285
:100E60001346CDE90C0104F001F910D242464B467D
:100E7000A199A09804F022FA00221346CDE90C01B2
:100E800003F0BAFF03D89798C0F1B4009790524688
:100E90005B469F999E9804F011FA0022134623E0C6
:100EA000100000201800002038000020000800403A
:100EB0000E0000203333F33F7B14AE47E17A843FCA
:100EC0003333D33F9A9999999999B93F0000F03FEC
:100ED00000005940EC51B81E85EBB13F00806640E0
:100EE0004AD8124DFB210940CDE90C0103F084FFE3
:100EF0000FD842464B46A199A09804F0DFF9002292
:100F00001346CDE90C0103F077FF02D29798B43075
:100F1000979052465B469F999E9804F0CFF9002225
:100F20001346CDE90C0103F067FF10D242464B4651
:100F3000A199A09804F0C2F900221346CDE90C0152
:100F400004F094F803D89798C0F5B47097909199ED
:100F50009798401A8F908F9803F037FF21F0004147
:100F60000022FB4BCDE90C0103F046FF05D2032123
:100F70008F9890FBF1F08F9001E08F988F908F9871
:100F8000B42810DD8F98C0F5B4708F90AFF20C517B
:100F900086A88F9A02F0A6FBEEA000F074FD86A84A
:100FA00000F071FD31E08F9800280CDDAFF22C517C
:100FB00086A88F9A02F096FBE7A000F064FD86A851
:100FC00000F061FD21E08F9810F1B40F0DDB8F98D8
:100FD0004242AFF2505186A802F084FBDDA000F03F
:100FE00052FD86A800F04FFD0FE08F9800F5B47019
:100FF0008F90AFF2705186A88F9A02F073FBD6A043
:1010000000F041FD86A800F03EFD0DE0D3480078D9
:1010100050B1D2480078462803D10020CF4908704B
:1010200003E00020CD490870F0E700BF52465B4660
:101030009F999E9804F042F952465B46CDE904011F
:101040009F999E9804F03AF90022C54BCDE9000122
:1010500003F00EFFCDE90201DDE9042303F008FFF0
:101060000022BF4BCDE9060103F002FF42464B468A
:10107000CDE90A01A199A09804F020F942464B4617
:10108000CDE90401A199A09804F018F90022B44B0D
:10109000CDE9000103F0ECFECDE9020100E003E13F
:1010A000DDE9042303F0E4FE0022AD4BCDE90601A7
:1010B00003F0DEFECDE90801DDE90A2303F042FC7E
:1010C000CDE90C0103F002FC9391929000224FF0C5
:1010D00080439399929803F0F1FCCDE90C0103F061
:1010E00045FE909090980E2803DB9EA000F0CBFC6C
:1010F0000BE0AFF270617EA8909A02F0F3FA9AA02A
:1011000000F0C1FC7EA800F0BEFC0DE09348007822
:1011100050B192480078462803D100208F490870CA
:1011200004E000208D490870F0E748E000BF9D957D
:101130009C949B979A9643E400BFAFF2F86000F04E
:10114000A2FC0DE08548007850B18448007846281C
:1011500003D100208149087003E000207F49087016
:10116000F0E700BFAFF2247000F08DFC0DE07B488B
:10117000007850B179480078462803D1002077499B
:10118000087003E0002075490870F0E700BFAFF277
:101190004C7000F078FC0DE07048007850B16F485A
:1011A0000078462803D100206C49087003E0002035
:1011B0006A490870F0E700BF1098401C10908E99A3
:1011C0001098884276DAFFF7C0BB0F98672813D1D2
:1011D00066A000F058FC0DE06048007850B15F4810
:1011E0000078462803D100205C49087003E0002005
:1011F0005A490870F0E700BF0F98622813D15CA02D
:1012000000F041FC0DE05548007850B1534800789B
:10121000462803D100205149087003E000204F49BF
:101220000870F0E700BF0F986C2813D151A000F0B0
:101230002AFC0DE04948007850B14848007846281B
:1012400003D100204549087003E00020434908709D
:10125000F0E700BF0F98722813D147A000F013FCED
:101260000DE03E48007850B13C480078462803D154
:1012700000203A49087003E0002038490870F0E780
:1012800000BF0F986E2815D1AFF6480000F0FBFBA9
:101290000EE03248007858B130480078462804D132
:1012A00000202E49087004E004E000202B4908705B
:1012B000EFE700BFFFF7F6BA10B504212F4802F0A0
:1012C000F0F958B32E48007888B900202D490880DD
:1012D00000212A4802F0B0F900220421274801F039
:1012E00032FF27480078401C2549087016E0244842
:1012F0000078012803D02248007802280ED11F4828
:1013000002F0BDF91F490880002204211B4801F0AA
:101310001AFF1B480078401C19490870082117481B
:1013200002F0BFF980B31648007870BB0020154961
:1013300048800021114802F07FF9002208210F485F
:1013400001F001FF0E480078401C0D49087034E0A0
:1013500000004940520000004C000000380000200E
:101360000000594047313300470000004735000076
:10137000423500004C3500005235000000080040A6
:101380000E0000200800002017E0FFE72648007844
:10139000012803D02448007802280ED1234802F007
:1013A0006EF92349488000220821204801F0CBFE35
:1013B0001D480078401C1C49087010211B4802F091
:1013C00070F958B31848007888B90021174802F01E
:1013D00033F900221021154801F0B5FE0020144910
:1013E000888011480078401C0F49087016E00E48AC
:1013F0000078012803D00C48007802280ED10B4851
:1014000002F03DF90A49888000221021074801F0C6
:101410009AFE05480078401C034908701C210348C7
:1014200002F050F910BD00000E000020000800403E
:1014300008000020704700BFFEE700BFFEE700BFC6
:10144000FEE700BFFEE77047704770477047000037
:101450000CB50020019000906C48006840F480308A
:101460006A49086000BF6948006800F400300090D5
:101470000198401C0190009818B90198B0F5A06F30
:10148000F1D16248006800F4003010B101200090F2
:1014900001E0002000900098012843D15C480068DA
:1014A00040F010005A4908600846006820F0030028
:1014B00008600846006840F0020008605348406831
:1014C000524948600846406848600846406840F411
:1014D000806048600846406820F47C1048600846F8
:1014E000406840F4E81048600846006840F08070AA
:1014F000086000BF4548006800F000700028F9D07F
:101500004248406820F0030040494860084640686F
:1015100040F00200486000BF3C48406800F00C000A
:101520000828F9D10CBD10B5FFF792FF10BD10B51A
:101530003648006840F001003449086008464068B9
:10154000344908403149486008460068324908403B
:101550002E4908600846006820F48020086008468C
:10156000406820F4FE0048604FF41F008860FFF7D9
:10157000DAFF4FF000602949086010BD10B5002166
:1015800000200022214B5B6803F00C0121B10429EB
:1015900006D0082928D107E0214B224C236027E000
:1015A0001F4B204C236023E0184B5B6803F4701042
:1015B000164B5B6803F48032022303EB904022B9A0
:1015C000194B4343174C23600DE0104B5B6803F449
:1015D000003323B1144B4343124C236003E0104B00
:1015E0004343104C236003E00D4B0E4C236000BFBF
:1015F00000BF064B5B68C3F303130C4CE15C094B63
:101600001B68CB40074C236010BD00000010024057
:10161000002002400000FFF8FFFFF6FE08ED00E0AA
:1016200000127A002000002000093D002400002064
:1016300008B50121242000F065FE4FF48070ADF85C
:10164000000010208DF8030003208DF80200694689
:10165000094800F09BFB4FF48071074800F043FC01
:101660000420ADF800006946044800F08FFB042117
:10167000024800F038FC08BD000801400014014099
:1016800010B59448006820F00F00924908600846A1
:10169000006840F00300086000208F49086040F2B5
:1016A000EE2000F038F901208C49C1F880010F20AC
:1016B00000F031F910BD10B500248648006820F014
:1016C0000F00844908600846006840F00800086080
:1016D00004E0601CC4B2012000F01DF97E4880388F
:1016E000006808B1C82CF4DBC82C01DB012010BD58
:1016F000002404E0601CC4B2012000F00CF976481C
:101700008038006808B9F02CF4DBF02C01DB0120F4
:10171000EDE70020EBE710B56E48006820F00F0001
:101720006C4908600846006840F00300086000202B
:1017300069490860022000F0EEF801206749C1F80D
:1017400080016448006820F00F0062490860084684
:10175000006840F0080008600C2000F0DCF85E48EB
:101760008038006808B1012400E00024322000F035
:10177000D2F8204610BD70B50026012508E0FFF71D
:10178000CAFF0446E00140EA6600C6B2681CC5B262
:10179000082DF4DD304670BD70B504464D48006834
:1017A00020F00F004B4908600846006840F0030035
:1017B0000860012520E004F0010664106EB10020ED
:1017C00045490860022000F0A6F801204349C1F80D
:1017D00080013C2000F09FF80CE000203E490860AA
:1017E0003C2000F098F801203C49C1F8800102201B
:1017F00000F091F8681CC5B2082DDCDD70BD10B595
:10180000FFF73EFFFFF757FFCC20FFF7C5FF44204F
:10181000FFF7C2FF10BD08B50121042000F072FDE2
:101820000120ADF8000010208DF8030003208DF892
:1018300002006946274800F0A9FA0121254800F076
:1018400052FBFFF71DFFFFF736FF08BD2DE9F84FEC
:10185000FFF7D5FFFFF714FFFFF72DFFCC20FFF7B1
:101860009BFFBE20FFF798FFFFF785FF8346FFF73A
:1018700082FF0446072C08DDE043C4B26FEA0B0088
:1018800000F0FF0B4FF0000A01E04FF0010AA14603
:101890004FEA09200FFA80F909EB0B000FFA80F9E3
:1018A000484603F021FE009003F0F2FD07460022B7
:1018B0000B4B03F0DDFA054603F058FA0FFA80F9F6
:1018C000BAF1000F02D04846BDE8F88FC9F1000018
:1018D00000B2F9E7000801408001214200002142E6
:1018E0000000E43F10B56FF0040000F0C2FF2E4886
:1018F00000682E49B0FBF1F02D49087008460078C9
:1019000000EB4001C1EBC0104FF6FF7101EAC000CF
:101910002849088010BD0146254A12784A434FF0F5
:10192000E0235A6100229A611A46126942F00102CC
:101930001A6100BF4FF0E022106900F001021AB1F5
:1019400000F48032002AF5D04FF0E022126922F034
:1019500001024FF0E0231A6100229A6170470146AC
:10196000144A12884A434FF0E0235A6100229A61D8
:101970001A46126942F001021A6100BF4FF0E022DC
:10198000106900F001021AB100F48032002AF5D08B
:101990004FF0E022126922F001024FF0E0231A61B9
:1019A00000229A61704700002000002000127A0097
:1019B000340000203600002010B54FF4A06000F085
:1019C00009FF10BD10B586B004460121082000F0C3
:1019D00099FC0121880400F0A2FC4FF48060ADF86E
:1019E000140018208DF8170003208DF8160005A9A3
:1019F0009D4800F0CBF94FF40060ADF814000420CE
:101A00008DF8170005A9984800F0C0F9019400204E
:101A1000ADF80800ADF80A00ADF80C00ADF8100004
:101A20000C20ADF80E0001A9904800F012FD4FF413
:101A3000A06000F0CFFE27208DF8000000208DF878
:101A400001008DF8020001208DF80300684600F0C7
:101A5000C6FE012240F22551844800F092FD01218A
:101A6000824800F082FD06B010BD10B50446214644
:101A70007E4800F0E7FD00BF40217C4800F050FEAA
:101A80000028F9D010BD10B5044603E014F8010B8E
:101A9000FFF7EBFF20780028F8D110BD10B540F219
:101AA0002551724800F052FE012840D140F22551E4
:101AB0006E4800F042FE6D4800F0C8FD6C490870A9
:101AC0006C48008800F4004088BB6A48008800F435
:101AD000804070B1084600780A2803D0002065498C
:101AE000088024E06348008840F400406149088091
:101AF0001DE05F4800780D2806D15E48008840F45C
:101B000080405C49088012E05948007859490988AA
:101B1000C1F30D01584A505456480088401C55499D
:101B2000088008460088C72801DD0020088010BD15
:101B3000014600BF704700BF504A128802F04002C1
:101B4000002AF9D0C2B24D4B1B1D1A80704710B548
:101B500086B00446012144F2040000F0D3FB47485C
:101B600000F034FC4FF40070ADF8140003208DF841
:101B7000160018208DF8170005A9414800F006F955
:101B80004FF48060ADF8140004208DF8170005A90B
:101B90003B4800F0FBF825208DF8000003208DF86D
:101BA00001008DF8020001208DF80300684600F066
:101BB00016FE01940020ADF80800ADF80A00ADF85B
:101BC0000C00ADF810000C20ADF80E0001A92B4858
:101BD00000F03FFC012240F22551284800F0D1FCE2
:101BE0000121264800F0C1FC06B010BD10B540F23E
:101BF0002551224800F0AAFD10B3204800F026FD30
:101C0000C4B22048008800F40040C8B91D480088CC
:101C100000F4804060B10A2C03D0002019490880EC
:101C200020E01848008840F400401649088019E078
:101C30000D2C06D11348008840F4804011490880DB
:101C400010E010480088C0F30D000F490C540D48F7
:101C50000088401C0B49088008460088C72801DD21
:101C60000020088010BD0000000C0140004800402A
:101C7000380000203A0000206200002000380140B7
:101C800000080140400000202A0100200948804748
:101C900009480047FEE7FEE7FEE7FEE7FEE7FEE74E
:101CA000FEE7FEE7FEE7FEE704480549054A064B66
:101CB000704700002F15000831010008580200206D
:101CC00058080020580400205804002010B504468D
:101CD000CC48844208D10121042000F02DFB0021D2
:101CE000042000F029FB46E0C748844208D10121C6
:101CF000082000F021FB0021082000F01DFB3AE045
:101D0000C248844208D10121102000F015FB0021B7
:101D1000102000F011FB2EE0BD48844208D10121C3
:101D2000202000F009FB0021202000F005FB22E02C
:101D3000B848844208D10121402000F0FDFA00217A
:101D4000402000F0F9FA16E0B348844208D101219E
:101D5000802000F0F1FA0021802000F0EDFA0AE086
:101D6000AE48844207D10121801500F0E5FA002138
:101D7000A01500F0E1FA10BD10B50121084600F0F1
:101D8000DBFA0021012000F0D7FA10BD2DE9F04167
:101D9000024600250026002000230024002791F899
:101DA00003C00CF00F0591F803C00CF0100CBCF14F
:101DB000000F03D091F802C04CEA050591F800C06D
:101DC000BCF1000F31D0146800202BE04FF0010C63
:101DD0000CFA00F3B1F800C00CEA03069E4220D1D1
:101DE00083004FF00F0C0CFA03F7BC4305FA03FC19
:101DF0004CEA040491F803C0BCF1280F06D14FF05F
:101E0000010C0CFA00FCC2F814C00AE091F803C0FF
:101E1000BCF1480F05D14FF0010C0CFA00FCC2F8E0
:101E200010C0401C0828D1D31460B1F800C0BCF128
:101E3000FF0F34DD546800202EE000F1080C4FF055
:101E4000010808FA0CF3B1F800C00CEA03069E4240
:101E500021D183004FF00F0C0CFA03F7BC4305FAB5
:101E600003FC4CEA040491F803C0BCF1280F05D12F
:101E700000F1080C08FA0CF8C2F8148091F803C0BD
:101E8000BCF1480F07D100F1080C4FF0010808FA27
:101E90000CF8C2F81080401C0828CED35460BDE86E
:101EA000F0814FF6FF710180022181700421C17021
:101EB00070470246002093680B400BB1012000E000
:101EC000002070470146886880B2704702460020B3
:101ED000D3680B400BB1012000E0002070470146A1
:101EE000C86880B2704701617047416170470AB1AC
:101EF000016100E041617047C16070474FF480327A
:101F00000A43826181618261826982697047024607
:101F10000020434B18684FF68073184040EA0210C7
:101F200008433F4B186070473E49C8617047F0B5A1
:101F30000A46002300240021002500F00046B6F1E7
:101F4000004F02D1364EF16901E0354E7168C0F3A1
:101F5000034583B200F44016B6F5401F08D121F0C6
:101F600070612F4E766826F070662D4F7E6012E00D
:101F700000F48016B6F5801F06D1032606FA05F494
:101F8000A14341F0706106E0460D360103FA06F602
:101F9000B14341F0706122B1460D360103FA06F6F5
:101FA000314300F00046B6F1004F02D11C4EF16102
:101FB00001E01B4E7160F0BD30B500228B071C0F95
:101FC0000F2303FA04F2164B08338C1053F8243015
:101FD0009343134C08348D1044F8253023468C105D
:101FE00053F824308C07240F00FA04F423430C4CDC
:101FF00008348D1044F8253030BD0A49DC310860C2
:102000007047000000080140000C01400010014032
:102010000014014000180140001C01400020014054
:102020000000014000002042DF48006840F001004D
:10203000DD49086008464068DC490840DA494860E4
:1020400008460068DA490840D74908600846006831
:1020500020F4802008600846406820F4FE004860B4
:102060004FF41F0088607047CF49096821F4803120
:10207000CD4A11601146096821F480211160B0F544
:10208000803F03D0B0F5802F0ED106E0C649096825
:1020900041F48031C44A116007E0C349096841F442
:1020A000A021C14A116000E000BF00BF704710B519
:1020B00001460022002300204A11012A02D1BA4C15
:1020C000236806E0022A02D1B74C236A01E0B64C2D
:1020D000636A01F01F02012494401C400CB10120EE
:1020E00000E0002010BD38B500200090002400253D
:1020F00000BF3120FFF7DBFF05460098401C009031
:102100000098B0F5A06F01D0002DF2D03120FFF77C
:10211000CEFF08B1012400E00024204638BD01466E
:102120000020A14A106820F0F80040EAC1001060C9
:102130007047A04908607047024600209A4B5868D3
:1021400020F47C1042EA01031843974B5860704713
:1021500098490866704701460020934A506820F06D
:1021600003000843506070478F48406800F00C003F
:102170007047014600208C4A506820F0F000084368
:102180005060704701460020874A506820F4E060A4
:1021900008435060704701460020834A506820F48D
:1021A000605040EAC1005060704729B17E4A527ABF
:1021B00002437D4B5A7204E07B4A527A82437A4B47
:1021C0005A7270477B49D831086070470146002039
:1021D000754A506820F44040084350607047002121
:1021E000714A20321170704A82F82010012802D002
:1021F00004280AD104E001216B4A2032117005E065
:102200000521694A2032117000E000BF00BF70470D
:102210006949086070476449096A0143624A11626A
:102220007047654944390860704730B50021002285
:10223000002400235C4D6D6805F00C0121B10429D8
:1022400005D0082923D105E05C4D056022E05B4DF7
:1022500005601FE0544D6D6805F47012524D6D68B5
:1022600005F48034022505EB92421CB9544D5543C8
:1022700005600BE04C4D6D6805F400351DB1504D07
:102280005543056002E04D4D5543056002E04B4D5E
:10229000056000BF00BF444D6D6805F0F0010909FD
:1022A000484D6B5C0568DD4045603F4D6D6805F449
:1022B000E061090A434D6B5C4568DD4085603A4D3D
:1022C0006D6805F46051C90A3E4D6B5C4568DD40A0
:1022D000C560354D6D6805F44041890B3A4D6B5C26
:1022E000C568B5FBF3F5056130BD29B12E4A5269C9
:1022F00002432D4B5A6104E02B4A526982432A4B18
:102300005A61704729B1284A92690243264B9A6163
:1023100004E0254A92698243234B9A61704729B1B0
:10232000214AD2690243204BDA6104E01E4AD26995
:1023300082431D4BDA61704729B11B4AD2680243C0
:10234000194BDA6004E0184AD2688243164BDA600F
:10235000704729B1144A12690243134B1A6104E011
:10236000114A12698243104B1A6170471249403971
:10237000086070470F49C86470470B49C8717047BF
:102380000948406A40F0807007494862704701463A
:102390000020054A92680A400AB1012000E00020AE
:1023A0007047014988727047001002400000FFF832
:1023B000FFFFF6FE000042428004424200127A0013
:1023C00000093D00420000205200002010B50446E4
:1023D000FB48844209D101218803FFF7ADFF0021AA
:1023E0004FF48040FFF7A8FF32E0F648844209D15D
:1023F00001214804FFF7ADFF00214FF40030FFF743
:10240000A8FF25E0F048844209D101218804FFF7A4
:10241000A0FF00214FF48020FFF79BFF18E0EB485E
:10242000844209D10121C804FFF793FF00214FF432
:102430000020FFF78EFF0BE0E548844208D1012120
:102440000805FFF786FF00214FF48010FFF781FF9A
:1024500010BD2DE9F04786B005460E460024A24681
:1024600000BFA1460027B08900B100BF2F462C8ACB
:102470004CF6FF700440F08804432C82AC894EF681
:10248000F3100440B088318908437189084304433C
:10249000AC81AC8A4FF6FF400440B0890443AC8263
:1024A00001A8FFF7C2FEC648874202D1DDF810A09E
:1024B00001E0DDF80CA0A88900F4004040B10AEB6F
:1024C000CA0000EB0A1031684900B0FBF1F807E0E0
:1024D0000AEBCA0000EB0A1031688900B0FBF1F882
:1024E0006420B8FBF0F004012009642101FB10898D
:1024F000A88900F4004040B1322000EBC900B0FBD5
:10250000F1F000F00700044308E0322000EB09106E
:102510006421B0FBF1F000F00F0004432C8106B001
:10252000BDE8F0874FF41651016000218180C18021
:1025300001810C21418100218181704710B5024643
:102540000020108A4FF2FF0318400B884C88234369
:102550008C882343CC8823431843108210BD00216C
:10256000018041808180C180704721B1828942F41D
:102570000052828104E082894DF6FF731A40828105
:102580007047F0B50346002400260025002040F6E1
:102590006A17B94200D100BF1846C1F3421401F0D6
:1025A0001F06012707FA06F5012C01D10C3004E0C3
:1025B000022C01D1103000E014301AB107682F430B
:1025C000076002E00768AF430760F0BD1AB1838A75
:1025D0000B43838202E0838A8B4383827047028AA3
:1025E0004FF6F0731A400282028A0A430282704751
:1025F00082894FF2FF731A40828182890A43828165
:10260000704721B1828942F00202828104E082890E
:102610004FF6FD731A4082817047028A4FF6DF73CE
:102620001A400282028A0A430282704721B1028A5A
:1026300042F48042028204E0028A4BF6FF731A40A1
:1026400002827047C1F30802828070470146888881
:10265000C0F308007047818941F001018181704712
:10266000028BD2B20283028B42EA012202837047BC
:10267000028B02F47F420283028B0A43028370477B
:1026800021B1828A42F02002828204E0828A4FF6DF
:10269000DF731A408282704721B1828A42F01002B1
:1026A000828204E0828A4FF6EF731A40828270477A
:1026B00021B1828A42F00802828204E0828A4FF6C7
:1026C000F7731A408282704721B1828942F4004236
:1026D000828103E08289C2F30E028281704721B1B8
:1026E000828A42F40062828204E0828A4FF2FF739F
:1026F0001A4082827047828A4FF6FB731A408282A8
:10270000828A0A438282704721B1828A42F00202A1
:10271000828204E0828A4FF6FD731A4082827047FB
:1027200002460020B1F5007F00D100BF13880B40A6
:102730000BB1012000E00020704701F40072B2F5F7
:10274000007F00D100BFCA430280704770B50246C7
:10275000002400230025002040F66A16B14200D173
:1027600000BFC1F3421501F01F03012606FA03F36F
:10277000012D02D19689334006E0022D02D1168A3E
:10278000334001E0968A33400C12012606FA04F425
:102790001688344013B10CB1012000E0002070BD58
:1027A00010B50022002340F66A14A14200D100BFF8
:1027B0000A1201249440A3B2DC43048010BD00003F
:1027C000003801400044004000480040004C0040F8
:1027D0000050004031490143314A1160704770B5E3
:1027E000002100230F22C47804B32D4C246804F484
:1027F000E064C4F5E064210AC1F10403CA404478EE
:1028000004FA03F18478144021430901254C067829
:10281000A155047804F01F050124AC4005786D1122
:10282000AD0005F1E025C5F8004109E0047804F0A9
:102830001F050124AC401C4D0678761145F8264052
:1028400070BD1A4A0A400243154B1B1F1A6070479D
:1028500039B1134A121D12680243114B1B1D1A6035
:1028600006E00F4A121D126882430D4B1B1D1A60B1
:102870007047042808D14FF0E021096941F00401B4
:102880004FF0E022116107E04FF0E021096921F0EB
:1028900004014FF0E0221161704700000000FA05CA
:1028A0000CED00E000E400E080E100E080FFFF1FAD
:1028B00010B50446FE48844208D10121C014FFF738
:1028C0003BFD0021E014FFF737FDC4E0B4F1804F79
:1028D00008D101210846FFF73CFD00210120FFF748
:1028E00038FDB8E0F348844208D101210220FFF707
:1028F00030FD00210220FFF72CFDACE0EE488442C1
:1029000008D101210420FFF724FD00210420FFF756
:1029100020FDA0E0E948844208D101210820FFF70A
:1029200018FD00210820FFF714FD94E0E4488442DC
:1029300008D101211020FFF70CFD00211020FFF726
:1029400008FD88E0DF48844208D101212020FFF7FC
:1029500000FD00212020FFF7FCFC7CE0DA488442E7
:1029600008D101214014FFF7E7FC00216014FFF7B4
:10297000E3FC70E0D548844209D10121C804FFF787
:10298000DBFC00214FF40020FFF7D6FC63E0D048C9
:10299000844209D101210805FFF7CEFC00214FF444
:1029A0008010FFF7C9FC56E0CA48844209D10121D2
:1029B0004805FFF7C1FC00214FF40010FFF7BCFCF5
:1029C00049E0C548844208D101214020FFF7C1FCFD
:1029D00000214020FFF7BDFC3DE0C048844208D103
:1029E00001218020FFF7B5FC00218020FFF7B1FC1A
:1029F00031E0BB48844208D101218015FFF7A9FCD2
:102A00000021A015FFF7A5FC25E0B648844209D1B6
:102A100001210804FFF790FC00214FF48030FFF7FC
:102A20008BFC18E0B048844209D101214804FFF72B
:102A300083FC00214FF40030FFF77EFC0BE0AB4835
:102A4000844208D101218804FFF776FC00214FF46D
:102A50008020FFF771FC10BD00220288944B984241
:102A60000ED0994B98420BD0B0F1804F08D0914BCB
:102A7000984205D0904B984202D0904B984204D196
:102A80004FF68F731A404B881A438D4B984207D0EC
:102A90008C4B984204D04FF6FF431A40CB881A4320
:102AA00002808B8883850B880385814B98420BD0ED
:102AB000854B984208D08B4B984205D08A4B984260
:102AC00002D08A4B984201D10B7A0386012383827C
:102AD000704770B5002400220023058C4FF6FE7667
:102AE00035400584028C8388048B4FF68F752C400B
:102AF000B51E2C400D882C43751E2A400D892A4393
:102B00004D882A436A4DA8420BD06F4DA84208D089
:102B1000744DA84205D0744DA84202D0734DA8420E
:102B200013D14FF6F7752A404D892A434FF6FB75AE
:102B30002A408D882A434FF6FF652B404FF6FF55FC
:102B40002B408D892B43CD892B4383800483CD88F3
:102B50008586028470BD70B5002400220023058C98
:102B60004FF6EF7635400584028C8388048B48F657
:102B7000FF752C404FF6FF452C400D884FF6FF7631
:102B800006EA05252C434FF6DF752A400D8906EA33
:102B900005152A434D8806EA05152A43444DA842E7
:102BA00002D0494DA8421DD14FF67F752A404D896C
:102BB0004FF6FF7606EA05152A434FF6BF752A4001
:102BC0008D8806EA05152A434FF6FF352B404FF254
:102BD000FF752B408D8906EA85052B43CD8906EAD2
:102BE00085052B4383800483CD880587028470BDCF
:102BF00070B5002400220023058C4FF6FF66354097
:102C00000584028C8388848B4FF68F752C404FF699
:102C1000FC752C400D882C434FF6FF552A400D893A
:102C20004FF6FF7606EA05252A434D8806EA052574
:102C30002A431F4DA84202D0234DA8421DD14FF276
:102C4000FF752A404D894FF6FF7606EA05252A438F
:102C50004FF6FF352A408D8806EA05252A434EF6B1
:102C6000FF752B404DF6FF752B408D8906EA051543
:102C70002B43CD8906EA05152B4383808483CD88B9
:102C80008587028470BD70B5002200230024058C66
:102C90004EF6FF7635400584038C8488828B48F697
:102CA000FF752A404FF6FF452A400D8820E00000BE
:102CB000002C01400004004000080040000C0040CF
:102CC000001000400014004000340140004C01405E
:102CD000005001400054014000180040001C00401A
:102CE00000200040004001400044014000480140F5
:102CF0004FF6FF7606EA05252A434DF6FF752B4071
:102D00000D8906EA05352B434D8806EA05352B4328
:102D1000FA4DA84202D0FA4DA84208D14BF6FF75F1
:102D20002C408D894FF6FF7606EA85152C4384806A
:102D30008283CD88A0F84050038470BD828B4FF20F
:102D4000FF331A408283828B4FF6FF7303EA01231D
:102D50001A4382837047F0B50C46154600220021C5
:102D60000026078C4EF6FF7C07EA0C070784828B4F
:102D7000018C4FF6FF7707EA043640F6FF473A40EA
:102D80004FF6FF7707EA05273A434FF6FF7707EA42
:102D900003373A43D94FB8420ED0D94FB8420BD07F
:102DA000B0F1804F08D0D74FB84205D0D64FB842C7
:102DB00002D0D64FB84206D14DF6FF77394046F4DF
:102DC0008057394305E047F6FF57394044F48057B0
:102DD000394382830184F0BD828B4FF6F3731A402E
:102DE0008283828B0A4382837047F0B50C46154676
:102DF000002200210026078C4FF6FF6C07EA0C0723
:102E00000784828B018C4FF6FF7707EA04264FF682
:102E10000C773A404FF6FF7707EA03172F433A4300
:102E2000B64FB8420ED0B64FB8420BD0B0F1804F7B
:102E300008D0B44FB84205D0B34FB84202D0B34F18
:102E4000B84206D14FF6FF57394046F480773943F0
:102E500005E04FF2FF57394044F4807739438283CD
:102E60000184F0BD028B4FF2FF331A400283028BC4
:102E70004FF6FF7303EA01231A4302837047F0B54C
:102E80000C461546002200210026078C4FF6EF7CE9
:102E900007EA0C070784028B018C4FF6FF7707EADD
:102EA000041640F6FF473A404FF6FF7707EA03372C
:102EB0003A434FF6FF7707EA05273A438F4FB84268
:102EC0000ED08F4FB8420BD0B0F1804F08D08D4F4D
:102ED000B84205D08C4FB84202D08C4FB84206D1D0
:102EE0004FF6DF77394046F01007394305E04FF6DB
:102EF0005F77394044F01007394302830184F0BD05
:102F0000028B4FF6F3731A400283028B0A4302834B
:102F10007047F0B50C46154600220021068C4FF68E
:102F2000FE773E400684028B018C4FF60C763240D1
:102F30007E1C06EA03162E433243704EB0420ED07A
:102F40006F4EB0420BD0B0F1804F08D06D4EB04202
:102F500005D06D4EB04202D06C4EB04206D14FF655
:102F6000FD76314044F00106314305E04FF6F57639
:102F7000314044F00106314302830184F0BD70B555
:102F800005460C465D4885420ED05D4885420BD013
:102F9000B5F1804F08D05B48854205D05A4885423C
:102FA00002D05A48854200D100E000BF208850B9C5
:102FB0002389A28861882846FFF7ABFFE18828466D
:102FC000FFF79EFF25E0208804280AD12389A288E4
:102FD00061882846FFF753FFE1882846FFF742FF44
:102FE00017E0208808280AD12389A288618828460A
:102FF000FFF7FBFEE1882846FFF7EEFE09E0238994
:10300000A28861882846FFF7A6FEE1882846FFF7D8
:1030100095FE70BD2DE9F04105460C4600260127BE
:10302000608808B9022600E00026A088012801D1A6
:10303000022700E001272088A0B92389A28861889F
:103040002846FFF766FFE1882846FFF759FF2389E6
:103050003A4631462846FFF712FFE1882846FFF737
:1030600001FF13E02389A28861882846FFF707FF44
:10307000E1882846FFF7F6FE23893A46314628467E
:10308000FFF747FFE1882846FFF73AFFBDE8F081E8
:103090000A884B881A438B881A43CB881A430B89BA
:1030A0001A434B891A438B891A43A0F8442070476E
:1030B0004FF6FF71818000210180C1804180017243
:1030C00070470021018041808180C1800181418160
:1030D0008181C1817047002101804180012181806F
:1030E0000021C180018170470021018041808180E1
:1030F000C18001814181818170470000002C014025
:10310000003401400004004000080040000C004072
:1031100021B1028842F00102028004E002884FF6E9
:10312000FE731A400280704731B1B0F8442042F477
:103130000042A0F8442005E0B0F84420C2F30E029B
:10314000A0F8442070471AB183890B43838102E0C1
:1031500083898B43838170478182704741EA0203F0
:10316000A0F8483070471AB183890B43838102E08D
:1031700083898B438381704701894FF6F872114030
:10318000018170470A46002101894FF68F7319406B
:1031900011430181704730B504460D46294620464B
:1031A000FFF7F0FF208940F00700208130BD2DE9B6
:1031B000F04104460D4616461F46602D06D13B469B
:1031C000012231462046FFF75AFE05E03B46012228
:1031D00031462046FFF79DFE29462046FFF7D2FFE5
:1031E000208940F007002081BDE8F08130B50C4611
:1031F00000210189C9B24FF6FF7505EA0325154381
:1032000025432943018130BD2DE9F04105460E4695
:1032100017469846002443463A4631462846FFF76B
:10322000E5FF2C894FF6F870044044F007044FF690
:103230008F70044044F070042C81BDE8F081F0B53B
:1032400004460D4616461F463B4632462946204652
:10325000FFF7CCFF208940F480402081F0BD01853C
:10326000828270470A46002101884FF68F73194009
:10327000114301807047F0B50C4615461E460021EB
:10328000002200230189028B038C4FF6F877394026
:1032900021434FF6FC473A4040F201173A434FF6BC
:1032A000DD773B404FF6FF7707EA06172F433B4396
:1032B000018102830384F0BD0A460021018B4FF691
:1032C0008F7319401143018370470A460021018B17
:1032D00048F6FF7319404FF6FF7303EA02231943C0
:1032E000018370470A460021818B4FF68F73194086
:1032F0001143818370470A460021818B48F6FF7392
:1033000019404FF6FF7303EA022319438183704784
:1033100021B1028842F08002028004E002884FF668
:103320007F731A400280704721B1828842F0040204
:10333000828004E082884FF6FB731A4082807047D7
:1033400021B1828842F00802828004E082884FF630
:10335000F7731A408280704721B1828842F00102DF
:10336000828004E082884FF6FE731A4082807047A4
:103370000A460021018B4FF6F77319401143018370
:1033800070470A460021018B4FF2FF7319404FF638
:10339000FF7303EA02231943018370470A460021A1
:1033A000818B4FF6F77319401143818370470A46AA
:1033B0000021818B4FF2FF7319404FF6FF7303EA30
:1033C00002231943818370470A460021018B4FF67F
:1033D000FB7319401143018370470A460021018B9A
:1033E0004FF6FF3319404FF6FF7303EA02231943E8
:1033F000018370470A460021818B4FF6FB73194009
:103400001143818370470A460021818B4FF6FF33B9
:1034100019404FF6FF7303EA022319438183704773
:103420000A460021018B4FF67F7319401143018337
:1034300070470A460021018BC1F30E014FF6FF735E
:1034400003EA02231943018370470A460021818B56
:103450004FF67F7319401143818370470A4600215C
:10346000818BC1F30E014FF6FF7303EA0223194368
:10347000818370470A460021018C4FF6FD73194085
:103480001143018470470A460021018C4FF6F773FF
:1034900019401143018470470A460021018C4FF600
:1034A000DF7319404FF6FF7303EA021319430184D7
:1034B00070470A460021018C4FF67F7319404FF682
:1034C000FF7303EA02131943018470470A4600217F
:1034D000018C4FF6FF5319404FF6FF7303EA0223A6
:1034E0001943018470470A460021018C4FF2FF7393
:1034F00019404FF6FF7303EA022319430184704712
:103500000A460021018C4DF6FF7319404FF6FF73F8
:1035100003EA023319430184704730B500230124C4
:103520008C40A3B2048C9C430484048C02FA01F501
:10353000ADB22C43048430BD30B5002304248C404C
:10354000A3B2048C9C430484048C02FA01F5ADB24E
:103550002C43048430BD70B5034600200024184677
:10356000183001258D40ACB21D8CA5431D8409B1D6
:10357000082909D100EB6100056825F07005056098
:103580000568154305600EE00D1FC5F34E05284480
:10359000056825F4E045056005684FF6FF7606EA04
:1035A00002263543056070BD21B1028842F0020257
:1035B000028004E002884FF6FD731A4002807047D3
:1035C00021B1028842F00402028004E002884FF632
:1035D000FB731A400280704721B1828842F080025A
:1035E000828004E082884FF67F731A4082807047A1
:1035F00002884FF6F7731A40028002880A4302805D
:10360000704782884FF68F731A40828082880A43FF
:103610008280704702894FF6F8731A40028102894E
:103620000A430281704702894FF67F731A40028174
:1036300002890A43028170478184704781857047FF
:10364000818670470187704781877047A0F84010D6
:10365000704702884FF6FF431A40028002880A43EF
:10366000028070470146888E70470146088F704778
:103670000146888F70470146B1F840007047014607
:10368000888C70470146088D704702460020138AD7
:103690000B400BB1012000E000207047CA430282BA
:1036A000704730B50246002000230024158A05EA41
:1036B0000103958905EA010413B10CB1012000E072
:1036C000002030BDCA430282704770470FB40449DE
:1036D00010B503AA029800F05FF910BC5DF814FB66
:1036E0003C0000200FB41CB5074B06AA7B4469467A
:1036F0000090059800F021F90020694600F030F9AB
:103700001CBC5DF814FB0000710200002DE9F041C3
:103710000E460446002020622046E168884730B308
:10372000252805D0D4E901219047206A401CF2E702
:10373000E168204600278847050018D0A5F1410020
:10374000192802D820354FF4006732462946204612
:103750002760FCF727FD40B1012804D0F61D26F0B4
:1037600007060836D8E7361DD6E72846DAE7206A86
:10377000BDE8F08170B50C460546012A05D02878D1
:10378000800600D5EA69002302E0012305E05B1C06
:10379000934202D2E05C0028F9D1A869E618C01A69
:1037A000A861286A184428622846AFF3008004E024
:1037B000D5E9012114F8010B9047B442F8D328460B
:1037C000AFF3008070BD00002DE9F04106460024F3
:1037D00010687529314615A510D0AFF30080002878
:1037E00002DA404212A507E031688A0701D511A527
:1037F00002E0490704D510A5012401E0AFF30080E1
:1038000000210A2306F1240707E0B0FBF3F203FBD3
:103810001200303078541046491C0028F5D1234658
:103820002A463046BDE8F04100F029B8000000000B
:103830002D0000002B0000002000000070B506469F
:1038400000F00EF80468054630460A22002100F018
:10385000B5F82C6070BD7047704770477047000026
:1038600000487047F401002010B5FFF7F9FF006829
:1038700010BD10B50446FFF7F3FF046010BD2DE93D
:10388000F0470D4699469246044600F12408016827
:10389000880604D5E06921F01001216000E00120D4
:1038A000A84201DD471B00E00027A1697A1902EB5D
:1038B0000900081AA0612078C00602D42046AFF3A0
:1038C0000080002608E0D4E901211AF8060090479C
:1038D000206A401C761C20624E45F4DB2078C0062E
:1038E0000AD52046AFF3008006E0D4E9012130205C
:1038F0009047206A401C2062381EA7F10107F4DCC3
:1039000007E0D4E9012118F805009047206A401C1F
:103910002062281EA5F10105F3DC2046AFF30080EC
:103920002078000602D50220BDE8F0870120FBE7E1
:1039300001694A1C02610878704700B58FB0CDE973
:1039400001310021059105497944CDE90310114663
:103950006846FFF7DBFE0FB000BD0000E5FFFFFF8C
:103960000A6802F8010B0A60704710B5436913B189
:10397000AFF3008001E0FFF7FDFE012010BD1278DB
:1039800000F124010A7000224A700122EDE711685B
:103990004FF0FF32E9E70000074B70B50D467B445E
:1039A000FFF7CBFF0446284600F09BF810B14FF01C
:1039B000FF3070BD204670BD95E1FFFF2DE9F04757
:1039C00091460F4680460446002614F8015B2DB14F
:1039D00000F030F80068405DC007F6D12B2D02D012
:1039E0002D2D18D0641E4A463946204600F02AF88C
:1039F00027B13968A14201D1C7F800804FF0020415
:103A000071050BD54042002803DDFFF729FF046054
:103A1000A007BDE8F08746F48066E4E70028F8DAFE
:103A2000FFF71EFF04606FF00040F2E700487047A8
:103A3000F401002010B500F07DF8001D10BD00BF9E
:103A4000D90E00002DE9F05F824615468B4600270F
:103A50000AF10104B9460078302801D09DB113E085
:103A600014F8010B0127782803D0582801D045B15C
:103A70000AE00DB1102D07D1002714F8010B102515
:103A800002E0082500E00A250026B0460EE005FB0E
:103A9000080005FB06F101271FFA80F801EB10462C
:103AA000B6F5803F00D3B94614F8010B294600F063
:103AB00045F80028EBDABBF1000F05D00FB1641E0A
:103AC00000E05446CBF80040B9F1000F06D0FFF7F4
:103AD000C7FE02210160C81EBDE8F09F48EA06400B
:103AE000FAE7007B00F0800070477546FFF79EFF05
:103AF000AE4605006946534620F00700854618B0DB
:103B000020B5FEF7D1F8BDE820404FF000064FF099
:103B100000074FF000084FF0000B21F00701AC4602
:103B2000ACE8C009ACE8C009ACE8C009ACE8C00921
:103B30008D46704700487047140200203A2800D292
:103B4000303820F02002412A01D3A2F13700884208
:103B500001D34FF0FF3070470446AFF3008020469A
:103B6000FCF73EFB4FF0013C50F8042B51F8043BAE
:103B70009A4221D1A2EB0C03934313EACC1317D141
:103B800050F8042B51F8043B9A4215D1A2EB0C03D8
:103B9000934313EACC130BD150F8042B51F8043B98
:103BA0009A4209D1A2EB0C03934313EACC13DBD066
:103BB0004FF00000704700BFD01A01BAB1FA81F18E
:103BC00001F0180122FA01F0CB40C1F12001DBB273
:103BD000C0B2C01A2CFA01F3D11A914311EAC311F1
:103BE000E6D17047490050EAC12018BF04204A0DB1
:103BF00018BF40F0010040F2FF72B2EB515F08BF06
:103C000040F00200012808BF052070472DE9F0416F
:103C10004F1E00EBC7010446D1E9000115461E46C0
:103C200037F006020DD02A46334601F021F97F1EF7
:103C300004EBC703D3E9002300F084FE37F006024B
:103C4000F1D1022F25D0042F13D0062F18BFBDE8C5
:103C5000F0812A46334601F00BF9D4E90A2300F03B
:103C600071FE2A46334601F003F9D4E9082300F037
:103C700069FE2A46334601F0FBF8D4E9062300F03A
:103C800061FE2A46334601F0F3F8D4E9042300F03C
:103C900059FE2A46334601F0EBF8D4E9022300F03E
:103CA00051FE2A46334601F0E3F8D4E90023BDE88B
:103CB000F04100F047BE0000024A0020110701F069
:103CC000A3BC000001FDFFFF2DE9F84F04460D469F
:103CD00021F0004000917449814213DC734988420D
:103CE00001DC08D13CB120462946BDE8F84F4FF031
:103CF000010201F089BC6E48002DCCBF6D496E49B0
:103D0000BDE8F88F6D49814211DD6D498142D8BF10
:103D10004FF0FF366DDD20462946FFF763FF04288C
:103D200008BFFFF7C9FF20462946BDE8F88F65495F
:103D3000654F25F00045814233DD6449814219DD3C
:103D4000002632464FF080432046294600F0FAFD17
:103D500080468A4601222046294601F055FC002271
:103D60003B4601F0ABFA4246534600F0A7FE04463C
:103D70000D463EE001260022BA463B462046294633
:103D800000F0E0FD80460F460022534620462946BB
:103D900001F094FA42463B4600F090FE04460D4680
:103DA00027E04B4981421BDDDFF8288102260022F3
:103DB00043462046294601F05BF800223B4600F0CE
:103DC000C1FD07468A46002243462046294601F0A7
:103DD00075FA3A46534600F071FE04460D4608E077
:103DE000032622462B4600203B4900F067FE04468E
:103DF0000D4622462B461046194601F039F88B46EF
:103E0000824602460B4601F033F807460246334825
:103E100088460B4606217844FFF7F8FE52465B467B
:103E200001F026F882462E488B463A464346052145
:103E30007844FFF7EBFE3A46434601F019F8024694
:103E40000B46002E504659460CDA00F07BFD224608
:103E50002B4601F00DF801B022462B46BDE8F04F8D
:103E600001F03AB900F06EFD22462B4601F000F851
:103E70001C4A7A4402EBC603D3E9002301F01EFA80
:103E800022462B4601F01AFA174A7A4402EBC6037F
:103E9000D3E9002301F020F9009A002AB8BF81F08D
:103EA0000041BDE8F88F0000000010440000F07FE2
:103EB000182D4454FB21F93FFB21F9BF0000DC3FE2
:103EC0000000203E0000F33F0000F03F0000E63F0E
:103ED000008003400000F83F0000F0BFE61800003B
:103EE000A4180000421800000A1800002DE9F04D47
:103EF00016460F460546020094B01C4621F00041CC
:103F000023F0004014BF4FF0010C4FF0000C0CEBFD
:103F1000470CFE4B0CEB03084FEA630CE0452DD336
:103F20005FEA060818BF4FF0010808EB4408984400
:103F3000F74B984522D3F74B50EA060C02D09F422C
:103F400005D14AB914B000201946BDE8F08D002A09
:103F500008BF4FF0000C01D04FF0010C0CEB4703F1
:103F600013F5001F0AD8002E14BF4FF0010C4FF0BC
:103F7000000C0CEB440313F5001F08D914B03246B3
:103F8000234628463946BDE8F04D00F0DBBCDFF89B
:103F900088B34FF0000A002FB8BF584523DADF4B33
:103FA0009842A8BF4FF0020A1DDADA4B83421ADCAE
:103FB000DB4B03EB2053142B08DDC3F1340C26FA42
:103FC0000CF303FA0CFCB4450DD108E05EB9C3F163
:103FD000140C20FA0CF303FA0CFC844503D103F013
:103FE0000103C3F1020A51EA020321D1002C1FDAB6
:103FF000002F18BFBAF1020F02D0BAF1010F0BD097
:104000000220FFF736FC14B00022BDE8F04D134645
:104010001046C04900F052BD0220FFF72AFC14B040
:104020002A463B46BDE8F04D0020BA4900F046BDA7
:1040300033006DD1584525D107F1804010F580102F
:1040400001BF002A0020B34914B008BFBDE8F08DBD
:10405000B048884207DC002CA1BF1846214614B0A6
:10406000BDE8F08D07E0002CBFBF184684F000418A
:1040700014B0BDE8F08DAB497944D1E9000114B02A
:10408000BDE8F08DDFF88CC2604526D1002C1FDA28
:1040900019B1594513D1DAB90AE0002A40F0DA82A1
:1040A0009D4A394614B0002062F31E01BDE8F08D30
:1040B0000020394614B060F31E01BDE8F08D07DA28
:1040C00014B03B46BDE8F04D0020614600F0F6BC60
:1040D00014B010463946BDE8F08D594518DAB4F1F0
:1040E000804F0DD0A4F10053B3F1FF5310D13B1E0C
:1040F0000EDB14B01046BDE8F04D194600F0E6BBEB
:104100003B4614B01046BDE8F04D194600F0B0BE75
:1041100027F00043A2BBE1B1594538D1002F06DD9D
:10412000002CA1BF0020594614B0BDE8F08D002F2F
:1041300001DD002C1FDB002F16DA002C14DBBAF196
:10414000010F4FF0000014BF7349774914B0BDE868
:10415000F08DBAF1020F18BF002F0CD0BAF1010F89
:1041600009D1002F07DA0CE0002FB8BF002C0EDABF
:10417000BAF1010F05D0002014B00146BDE8F08D62
:1041800005E014B000204FF00041BDE8F08D4FF085
:10419000010C0CEBE7720D9252EA0A020BD0634A53
:1041A00090427DDD624B634A984216DD8A420EDB07
:1041B000002C1CDB2CE00120FFF75BFB14B000227D
:1041C000BDE8F04D13461046114600F077BC51484B
:1041D000884202DC002C0ADC1AE0914202DA002C50
:1041E00016DA04E04B4B99421EDD002C10DD022054
:1041F000FFF73FFB40F2013200204FF0E04101F0B9
:1042000003FA454A14B061F31E021146BDE8F08D71
:104210000220FFF72EFBFFF74FFD3E4A14B061F37B
:104220001E021146BDE8F08D00222846394601F0F5
:1042300045F8054688466FF0010201F0E5F94FF0B8
:1042400055323D4B00F048FF2A46434600F010FE31
:1042500000223A4B00F040FF07468B462A46434671
:104260001046194600F004FE3A465B4600F000FE98
:1042700009910C904FF0C042314B2846414600F066
:10428000F7FD07468B462F4A2D4B09990C9800F0F5
:10429000EFFDCDE901102C4A2C4B2846414600E0A9
:1042A00019E000F0E5FDDDE9013201F007F83A46DA
:1042B0005B460591089000F045FB002588463A468C
:1042C0005B46284600F0FAFF059B089A00F004FFC1
:1042D000024600F076B90020B1F5801F07DA3522DA
:1042E0002846194601F090F905466FF0340000EBBE
:1042F0002150A0F2FF300190C1F3130040F07F6124
:1043000041F0405102911249884223E0FFFF1F0013
:10431000FFFF0F000000F03F0000F07F000040436F
:1043200001FCFFFF3C1700000000F0FF0000E0412F
:104330000000F043FFFFEF3F5555D53F0000E03F41
:104340004715F73FFE822B6544DF5DF80BAE543E08
:104350008E980300D8BF4FF0000B0EDDFE4981425E
:10436000C8BF4FF0010B08DC01984FF0000B401C58
:1043700001900298A0F580100290F84802997844C4
:1043800000EBCB000B911090D0E90023284600F001
:1043900095FF009010980791D0E9002328460B99CB
:1043A00000F0D0FA02460B460020ED4900F086FBF3
:1043B00005910B46024608900799009800F058FDB9
:1043C0000690E848884600277844029900680E90D5
:1043D0004FF0005040EA610000EB8B4000F50021F7
:1043E00010980291D0E900230E9800F067FF2A464A
:1043F0000B9B00F071FE3A46434600F039FD05463E
:104400000B9138464146029B0E9A00F031FD079B06
:10441000009A00F061FE2A460B9B00F04FFF059BBF
:10442000089A00F025FD0B911090069A434610461D
:10443000194600F01DFD05460246CB480B4600918B
:1044400006217844FFF7E2FB009B2A460291089080
:104450001046194600F00CFD029B089A00F008FD7A
:1044600005460591434638461946069A00F06AFA11
:104470000B9B109A00F0FCFC2A46059B00F062FAA8
:104480003A464346059108901046194600F0F0FC64
:104490000022B64B00910C9000F054FA059B089A4C
:1044A00000F050FA0D463A46B04B384600F006FF91
:1044B000009B0C9A00F002FF059B089A00F00CFE8E
:1044C00011913A460C902B461046414600F0D0FC24
:1044D000079100904346069A11990C9800F0C8FC89
:1044E000804603912B463A460B99109800F0C0FC89
:1044F0004246039B00F026FA059180460B46024691
:104500000799009800F01EFA00200F460546079B09
:10451000009A00F0D3FE4246059B00F0DDFD804688
:1045200009914FF06042924B2846394600F0A0FCBA
:10453000009102908F4A8E4B4046099900F098FCFA
:10454000804603918C4A8D4B2846394600F090FCFA
:104550004246039B00F0F6F9894A7A4402EBCB030A
:10456000D3E9002300F0EEF906900391019800F0E2
:104570002CFC0746DDE902030591069A009900F03C
:10458000E1F9804A7A4402EBCB0BDBE9002300F02F
:10459000D9F93A46059B00F0D5F9002588463A46F8
:1045A0002846059B00F08AFEDBE9002300F086FE2A
:1045B000009B029A00F082FE039B069A00F08CFD9D
:1045C0000246002006900D98654FAAF1010318439A
:1045D00001D16D4F069000200B46009030462146D9
:1045E00000F046FC82468B46234630461946009A28
:1045F00000F064FE2A46434600F03AFC52465B4611
:1046000000F0A0F906468A462A464346214600980D
:1046100000F02EFC04460D463246534600F092F957
:104620005A4A8B46914226DBABEB020353EA000267
:1046300010D122462B4600F041FE80460591544A97
:10464000544B3046514600F07DF94246059B00F040
:104650000DFD30D20220FFF70CF940F201320020AC
:104660004FF0E04100F0D0FF0A46394614B062F343
:104670001E01BDE8F08D484B2BF000429A421AD340
:10468000464A0BEB020353EA000208D122462B46AE
:1046900000F014FE3246534600F0E8FC0BD802202E
:1046A000FFF7E7F8FFF708FB0A46394614B062F354
:1046B0001E01BDE8F08D2BF000403949394A01EB6D
:1046C00020514FF00008824223DA481C4FF4801139
:1046D00021FA00F05844344AC0F30A517A44334B6B
:1046E000A1F2FF31CB4020EA0303C0F3130040F4F2
:1046F000801CC1F1140012682CFA00F8BBF1000F05
:10470000B8BFC8F100082046294600F0D7FD04468E
:104710000D4622462B463046514600F013F94FF025
:10472000000B5A46224B5846059100F0A1FB009021
:104730000791204A204B5846059900F099FB0491B7
:10474000029022462B465846059900F0B7FD3246A6
:10475000534600F0C1FC31E07AB60B00AE13000006
:104760000000F03FEC1300001A13000000000840A6
:1047700009C7EE3FFD033ADCF5015B14E02F3EBEB6
:10478000F2110000B81100000000F0BF00009040DE
:10479000FE822B654715973C00CC904000346F3F5C
:1047A00001FCFFFF0000E03FD8100000FFFF0F00FA
:1047B000432EE63F396CA80C615C20BE3F4A404B5B
:1047C00000F056FB049B029A00F0BCF806468A46AD
:1047D000079B009A00F0B6F804460D46079B009A26
:1047E00000F06CFD3246534600F076FC0646224649
:1047F0002B4609911046194600F03AFB83460246C3
:1048000030488A460B4605217844FFF7FFF95A469F
:10481000534600F02DFB22462B4600F05DFC8246FD
:104820008B46324620462946099B00F021FB324642
:10483000099B00F087F80591089000224FF0804313
:104840005046594600F03AFD0646009152465B46F6
:104850002046294600F00CFB3246009B00F02EF962
:10486000059B089A00F02AFD22462B4600F026FD03
:104870000022154B00F030FC0D46044601EB0851B8
:104880000815002810DC42462046294600F0BCFEF0
:10489000FFF7A8F9042808BFFFF70EFA42462046A2
:1048A000294600F0B1FE044606980B4614B0224695
:1048B0003946BDE8F04D00F0DBBA0000EF39FAFEF2
:1048C000422EE63F840F00000000F03F2DE9F0414A
:1048D00006460F4600F00CFC04000D4618BF0120F0
:1048E000284320F00040C0F17F6000F1E040C00F9D
:1048F0000ED0301C18BF0120384320F00040C0F11A
:104900007F6000F1E040C00F04BF0120FEF7B1FF5F
:1049100020462946BDE8F08110B500290AD0087864
:10492000002807D005487844FFF71CF9002801D07B
:10493000002010BD0248784410BD0000BA0E0000EF
:10494000B20E000010B591EA030F48BF83F0004398
:1049500000F1BC84841A71EB030C05D2121943EBED
:104960000C03001B61EB0C01DFF824E14FEA11544A
:10497000A4EB135C1EEA430F18BF9EEA445F73D09A
:1049800023EA0E03DCF1200E21EA045143F48013E4
:1049900032D322FA0CFE10EB0E0023FA0CFE41EB90
:1049A0000E01CCF1200E03FA0EFE10EB0E0051F1B9
:1049B0000001B1F5801FCCF1200E32D201EB045181
:1049C00012FA0EF2BDE8104058BF7047401C38BFC5
:1049D0005FEA420218BF7047002814BF20F00100B0
:1049E00041F100014FEA410313F5001F38BF704742
:1049F000A1F1C04100F034BB012A43EB0302ACF14A
:104A0000200CDCF11F0E32BF4FF0000E23FA0CF326
:104A100010EB030041EB0451B4EB115FD0D0A1EBDC
:104A2000045101F5801149085FEA300001EB04519F
:104A30000ED350F1000038BF12FA0EFE08D1BDE8C7
:104A40001040C9E7401C38BF5FEA4202CAD1C3E741
:104A5000BDE810404FEA410313F5001F38BF70470F
:104A6000A1F1C04100F0FCBA9EEA445F08D011EA0F
:104A70005E0FBDE8104004BF01F000410020704708
:104A8000BDE8104070B500F09DFA00BF64FBBE3E6B
:104A90000000E0FF02494FF0000000F083BD00BFBE
:104AA0000000F87F491058BFC1F140415B1058BF6A
:104AB000C3F140438B42EFF3008070472DE9C041C2
:104AC00030B4DFF8A0C23CEA111418BF3CEA13145A
:104AD00000F0EC8081EA03051CEA111444EAD57465
:104AE00018BF1CEA131500F0C780A4EB05044FF0B3
:104AF000004545EAC12145EAC32341EA505143EA52
:104B0000525304F17F74994204F500344FEAC020F7
:104B10004FEAC22208BF904200F09C804FEA136522
:104B20000FF24016765D4FEA134506FB05F7C7F115
:104B3000807706FB07F74FEAD737A7FB0368764273
:104B4000C8F58038A7FB06CE38BFA8F1010807FBDF
:104B500008E64FF0000EA6FB028CE6FB03CEDCF16C
:104B6000000CCEF1004E38BFAEF1010EA6FB0C5882
:104B70004FF000074FF00005E6FB0E87A1FB08C6CB
:104B8000A0FB07CE16EB0E0645F10005E1FB07651D
:104B900015F1E04E7EBFA4F580345FEA46066D4114
:104BA00016F1800745F100054FEA17274FEA066620
:104BB00047EA0567A6F1DE46B6F1805F4FEA1525A4
:104BC0001FD9384624F0010C05EBC471BCF1FE6F0F
:104BD00001EB0C1102D8F0BCBDE8008124425CBF9F
:104BE00001F5801E9EEAC47F02D4F0BCBDE80081BE
:104BF000244238D4F0BCA1F1C041BDE8004100F02E
:104C00002FBA4FEAD22242EA43524FEAD323A7FBFC
:104C100002864FEAD02040EA415007FB03661EEAB5
:104C20000E0F4FEAD12105FB026658BFA6EB0056D6
:104C3000B6EB00564FEA520E4EEAC37E18EB0E0E4C
:104C400056EB530EBDD518EB02085E417F1C55F1A3
:104C50000005B6E74FF480154FF000074FF000064F
:104C60004FF00008ADE7F0BC4FF0000001F1C0418B
:104C700001F00041BDE8008111EA0C1F0CEA131598
:104C800000D00CE013EA0C1F00F025804FF000006C
:104C9000F0BC81EA030101F00041BDE80081F0BCF5
:104CA00081EA0301BDE8004100F0DAB9F0BCBDE8DB
:104CB000004170B500F086F9097EFC3E00F007B8AF
:104CC00081EA03014FF0000001F00041704781EAE2
:104CD000030100F0C5B9F0BC4FF000002249BDE867
:104CE00000417047FFFDFBF9F7F5F4F2F0EEEDEB54
:104CF000E9E8E6E4E3E1E0DEDDDBDAD8D7D5D4D3DA
:104D0000D1D0CFCDCCCBCAC8C7C6C5C4C2C1C0BF25
:104D1000BEBDBCBBBAB9B8B7B6B5B4B3B2B1B0AF2B
:104D2000AEADACABAAA9A8A8A7A6A5A4A3A3A2A10F
:104D3000A09F9F9E9D9C9C9B9A99999897979695CA
:104D400095949393929191908F8F8E8E8D8C8C8B66
:104D50008B8A8989888887878685858484838382EE
:104D6000828181800000FF070000F87F4FEA410345
:104D70004FEA5353A3F58063D3F11E03C8BFD3F1A9
:104D8000210C0CDD4FF0004242EAC12242EA5052AF
:104D900032FA03FC8CEAE17CACEBE1707047102B3B
:104DA000C4BF0020704703F5787CBCF1FF3F04D0FE
:104DB0006FF0004282EA2100704770B500F002F9FE
:104DC0004992248000207047F2E710F0004248BF6B
:104DD0004042B0FA80F310FA03F10AD0C3F11D0388
:104DE00003F580634FEA415002EB035202EBD121FD
:104DF00070474FF00000704751EA030C17D41CF5C0
:104E0000801F58BFBCF5801F00F10680994218BF73
:104E1000704708BF9042704707D711F5801F58BFF1
:104E200013F5801F19D499427047894270471CF5C9
:104E3000801F08D5BCF5801FF7D58B4218BF70477F
:104E400008BF824270474FF4001C1CEB410F38BF73
:104E50001CEB430F01D28B42704770B500F0B2F8E3
:104E6000922449004FF000514FF08053FFF71ABED3
:104E7000DFF848C170B51CEA111E1EBF1CEA1315ED
:104E80009EEA0C0F95EA0C0F00F06F8081EA030494
:104E900023EA4C134EEAD47E21EA4C1141F48011EE
:104EA00043F48013AE44A1FB024CA0FB0365AEF1BA
:104EB0007F7E361955EB0C05A1FB034C4CF100032A
:104EC000A0FB021C16EB0C06654153F100030942DE
:104ED00018BF46F0010613F4007F0BD14FEA0331EF
:104EE0004FEA0530340341EA155140EA16506FF09D
:104EF00003020AE04FEAC3214FEAC520F40241EA67
:104F0000555140EA56506FF0020202EB2E4201EB7F
:104F1000025585EACE710AD05FEA440C18BF24F02E
:104F2000004450F1000041F1000120EAD47040F249
:104F3000FE7C624500D270BDA84214BF4FF0804491
:104F40004FF04044002E08BF0024BEF1806FA8BF80
:104F5000A1F1C041BDE8704080F282804FF00000B6
:104F600001F1C04101F0004170479EEA0C0F0CEACC
:104F7000131518BF95EA0C0F06D04FF0000081EA18
:104F8000030E0EF0004170BD00F01CF88900013ED8
:104F900000F007B800F009B84FEA430C5FEA5C5C28
:104FA00008D081EA030100F05BB84FEA410C5FEAE8
:104FB0005C5CF6D14FF00000014970470000FF072C
:104FC0000000F87F0EF1020E2EF0030E5EF8046B67
:104FD000364205D4012A43EB030515F5001F12D80C
:104FE000012841EB010C1CF5001F0CD80ED14FEA33
:104FF000D17C15F5001F0CEB4C0C0CF1020C08BF1A
:105000004CEBD37C04E04FF0080C01E04FEAD37C7A
:105010000CEB4C0526FA05F606F00706B6F1040C73
:1050200006D20EEB860CBDE870404CF0010C6047D8
:10503000DFE80CF0090B02024FF000414FF00000D6
:10504000A1F5002170BD19461046012851EB01045D
:1050500018BFD4F5001484BF002001F0004170BDDA
:105060000808A0F500114FEA3101704753EA010C1E
:1050700017D41CF5801F58BFBCF5801F00F10680B7
:105080008B4218BF704708BF8242704707D713F59D
:10509000801F58BF11F5801F19D48B4270479B4267
:1050A00070471CF5801F08D5BCF5801FF7D59942C5
:1050B00018BF704708BF904270474FF4001C1CEBAC
:1050C000430F38BF1CEB410F01D2994270470FB418
:1050D0000CBC03BCFFF7C1BE91EA030F10B581F011
:1050E00000413FF537AC83F0004300F0EFB800001B
:1050F0002DE9F04101F5801CBCF5001FC0F2C38012
:105100004FEA115C21EA0C510CF1FD0C41F48011C5
:105110005FEA5C0C0CF5C07C01D3400049413DA422
:10512000890241EA905187028E0E0A0CA45D04FBAD
:1051300004F602FB06F6C6F14046A4FB0662F60D35
:1051400046EA422606FB06F4A4FB01235242C3F1C1
:10515000404338BF5B1EA6FB02420024E6FB03244B
:10516000D20B42EA4446A6FB0623A1FB02E2A3FBC4
:1051700007E4A4184FF0000252F10002E3FB0142E1
:105180006442C2F1404E38BFAEF1010EA6FB0423CB
:105190004FF00002E6FB0E32A2FB03464FF0000484
:1051A000B61954F10004E2FB0264A1FB06E6A4FB7D
:1051B00007E816EB08064FF0000858F10008E4FB7A
:1051C00001687642C8F1405838BFA8F10108A2FB37
:1051D00006E4A3FB08E52D194FF0000454F1000488
:1051E000E2FB0854A1FB05E6A7FB04E818EB060860
:1051F0004FF0000656F10006E1FB048618F1200589
:1052000056F10006A809A8F11B08B10908F03F08EB
:10521000B8F10A0F40EA86601CD901EB0C51BDE8D9
:10522000F08100BFFCF5EEE8E2DDD8D3CFCBC7C3F9
:10523000C0BDB9B6B4B1AEACA9A7A5A3A19F9D9BB3
:105240009A9896959392908F8D8C8B898887868576
:1052500084838281A0FB006800FB01F208EB420816
:10526000B8EB872807D5341858EB0104D5D5401C76
:1052700051F10001D1E7341A78EB0104CDD4401E7E
:1052800071F10001C9E75FEA4C0C5FEA9C5C0DD14B
:1052900005D34FF0000001F00041BDE8F081BDE80A
:1052A000F04170B5FFF78EFE6DDBFFBEBDE8F0414B
:1052B0004FF00000004970470000F87F10B591EAF8
:1052C000030F48BF83F000433FF544AB841A71EBF2
:1052D000030C07D212198CF0004C43EB0C03001B9B
:1052E00061EB0C01DFF8A4E14FEA1154A4EB135C6D
:1052F0001EEA430F18BF9EEA445F00F0B08023EA25
:105300006E03524221EA0451C3EB6E0338BF5B1EA9
:10531000DCF1200E25D322FA0CFE10EB0E0043FA2E
:105320000CFE41EB0E01CCF1200E03FA0EFE10EB49
:105330000E0051F10001CCF1200E29D412FA0EF228
:1053400001EB0451BDE8104058BF7047401C1CBF22
:10535000B2F1004F704700280CBF491C20F001003B
:10536000704712EB020E43EB030218BF4FF0010E21
:105370004EEA4202ACF1200CDCF11E0E54D943FA85
:105380000CFE10EB0E0051F1FF31CCF11E0ED5D505
:105390000EF1010E12FA0EFE404141EB010101EB4C
:1053A000445C5FEA5C5C10D910EBDE7001EB0451E9
:1053B00038BFBEF1004FBDE8104018BF704700284D
:1053C0000CBF491C20F00100704730D24FEAD42CAA
:1053D00011F5001124F400641BD0B1FA81F20B3AEC
:1053E000A41AA41ED2F12003914030FA03F319430A
:1053F000904001EBCC71002C01EB0451BDE8104052
:10540000A8BF704701F1C0414FF0000001F000411A
:105410007047B0FA80F310FA03F100D110BDE41A1E
:10542000173C4805C90AE4E701EB045110BD4910D7
:1054300001EB0451BDE810404FEA300002E04FF0AC
:10544000000170474A0008BF0042F8D0B2F5001FC3
:1054500028BF704701F000414FF0000070479EEAFE
:10546000445F07D011EA5E0FBDE8104004BF002181
:1054700000207047BDE8104070B5FFF7A3FD00BFE6
:1054800040DFF63E83F00041104670470000E0FF29
:1054900043004FEAD30C4FEA3C0C43401FBF400788
:1054A0000CF1605113F0FE4F70471CF0006F03D1F8
:1054B00000200CF0004170470CF0004343EA5070AC
:1054C00010B540EACC0000F027F800BF00000092C1
:1054D0004FEA0001FFF7C4BD4FF000414FF000005C
:1054E000A1F500217047000010F0004148BF404284
:1054F000B0FA80F310FA03F2C3F19D030BD051EA26
:10550000C35101EB1220530638BF704700F1010070
:1055100008BF20F0010070470EF1020E2EF0030EBE
:105520005EF8044B244204D44FEA4102B2F17F4FAB
:1055300011D84FEA4003B3F17F4F0CD80ED14FEA98
:10554000D07CB2F17F4F0CEB4C0C0CF1020C08BF7D
:105550004CEBD17C04E04FF0080C01E04FEAD17C29
:105560000CEB4C0324FA03F404F00704B4F1040C2C
:1055700006D20EEB840CBDE810404CF0010C6047E5
:10558000DFE80CF0070802024FF00040A0F58000B1
:1055900010BD0846420018BFD2F1807288BF00F0EB
:1055A000004010BD0CF00F03092B08BF082000F0CD
:1055B00059800A2B0BD0082B18BF704708BF1CF06E
:1055C000400F0AD04FF000004FF0000170471CF070
:1055D000400F18BF4FF0004070471CF0100F08D06C
:1055E00020F0704300F07F4242EAD3014FEA43705B
:1055F000704700F0604021F07F4242EA000201F073
:105600007F4040EA727070474FF0FF0C4CF4E06C42
:105610001CEA11531CBF9CEA030C9445C2BFDA423A
:1056200001EB02517047002B0DD0BCF1000F0FD0E1
:10563000002A01F00041A4BF41F0E04141F07F6148
:105640004FF00000704701F000414FF0000070473C
:1056500050EA01334FF09B0C18BF4CF0806C7FF484
:1056600019AA70471CF4801F11D01CF4E02F03D03E
:105670006FEACC31490070474FF04050EFF30082A1
:1056800022F0704242EA000282F3008870474FF035
:1056900000007047000000004FBB610567ACDD3FB4
:1056A000182D4454FB21E93F9BF681D20B73EF3F49
:1056B000182D4454FB21F93FE2652F227F2B7A3CC1
:1056C000075C143326A6813CBDCBF07A8807703C7A
:1056D000075C143326A6913CC4EB98999999C9BFED
:1056E000711623FEC671BCBF6D9A74AFF2B0B3BF22
:1056F0009AFDDE522DDEADBF2F6C6A2C44B4A2BFE2
:105700000D5555555555D53FFF8300922449C23F4D
:105710006E204CC5CD45B73F513DD0A0660DB13F81
:10572000EB0D76244B7BA93F11DA22E33AAD903F93
:10573000000000000000F03F000000000000F83F03
:1057400000000000000000000000004003B8E23F3D
:10575000000000000000000006D0CF43EBFD4C3EEF
:10576000033333333333E33FFFAB6FDBB66DDB3FE4
:105770004D268F515555D53F01411DA96074D13F2C
:1057800065DBC9934A86CD3FEF4E454A287ECA3F26
:105790003E5555555555C53F93BDBE166CC166BFA8
:1057A0002CDE25AF6A56113FF16BD2C541BDBBBEA1
:1057B000D0A4BE726937663E000000000000000001
:1057C000F058000800000020580000006C0100089C
:1057D000485900085800002000080000880100080F
:1057E0001001000043000000F8FFFFFF00404040B0
:1057F00040404040404041414141414040404040A4
:10580000404040404040404040404040400502024F
:10581000020202020202020202020202022020200E
:10582000202020202020200202020202020290906A
:105830009090909010101010101010101010101068
:1058400010101010101010100202020202028888BC
:1058500088888888080808080808080808080808C8
:1058600008080808080808080202020240000000B0
:105870000000000000000000000000000000000028
:105880000000000000000000000000000000000018
:105890000000000000000000000000000000000008
:1058A00000000000000000000000000000000000F8
:1058B00000000000000000000000000000000000E8
:1058C00000000000000000000000000000000000D8
:1058D00000000000000000000000000000000000C8
:1058E00000000000000000000000000000000000B8
:1058F00000000000000000000000000000000000A8
:105900000000000000000000000000000000000097
:1059100000A24A040000000000000000010203048D
:105920000607080900000000000000000000000059
:105930000000000000000102030401020304060746
:0859400008090204060800003A
:0400000508000131BD
:00000001FF
