:020000040800F2
:1000000058080020412E0008E9250008EB250008CB
:10001000EF250008F3250008F72500080000000080
:10002000000000000000000000000000FB250008A8
:10003000FD25000800000000FF250008012600083B
:100040005B2E00085B2E00085B2E00085B2E00086C
:100050005B2E00085B2E00085B2E00085B2E00085C
:100060005B2E00085B2E00085B2E00085B2E00084C
:100070005B2E00085B2E00085B2E00085B2E00083C
:100080005B2E00085B2E00085B2E00085B2E00082C
:100090005B2E00085B2E00085B2E00085B2E00081C
:1000A0005B2E00085B2E00085B2E00085B2E00080C
:1000B0005B2E00085B2E00086B2400085B2E0008F6
:1000C0005B2E00085B2E00085B2E00085B2E0008EC
:1000D0005B2E0008A12D00085B2E0008512C0008A3
:1000E0005B2E00085B2E00085B2E00085B2E0008CC
:1000F0005B2E00085B2E00085B2E00085B2E0008BC
:100100005B2E00085B2E00085B2E00085B2E0008AB
:100110005B2E00085B2E00085B2E00085B2E00089B
:100120005B2E00085B2E00085B2E00085B2E00088B
:1001300000F002F800F04DF80AA090E8000C8244AC
:100140008344AAF10107DA4501D100F042F8AFF289
:10015000090EBAE80F0013F0010F18BFFB1A43F0A5
:1001600001031847C0740000E0740000103A24BF77
:1001700078C878C1FAD8520724BF30C830C144BF0C
:1001800004680C607047000000230024002500264E
:10019000103A28BF78C1FBD8520728BF30C148BFEA
:1001A0000B607047662907F0E580642904F0E68358
:1001B000732904F0C086002070471FB504F0D2FEFA
:1001C00004000020002106F08FFAE0601FBD10B58A
:1001D00010BD04F0C9FF1146FFF7EFFF00F074FAFD
:1001E00004F0E7FF03B4FFF7F2FF03BC02F07AFD6F
:1001F000002107E042F6E06100BF0A00A1F101031F
:1002000099B2FAD10200A0F1010398B2F2D170477D
:100210002DE9FF5FACB004460D4600224FF080434D
:100220002046294605F04AFDCDE91E0100224FF087
:100230008043DDE92E0105F041FDCDE91C010022DE
:100240004FF08043FE4903C905F038FDCDE91A019E
:10025000DDE91C23DDE91E0106F018FFCDE90C01E4
:10026000DDE91A2306F0ECFC0022F64BCDE90E0185
:1002700006F050FACDE92A0120462946DDE92E2371
:1002800006F004FFCDE90E01ED480CC800204FF048
:10029000804106F0D5FCCDE90C01DDE90E2306F026
:1002A000CFFCCDE92801DDE91E23DDE91A0106F0C6
:1002B000C7FC0022E34BCDE90E0106F02BFACDE995
:1002C0002601DF480CC800204FF0804106F0B8FC42
:1002D00022462B46CDE90E0106F0B2FC8046894647
:1002E00000224FF080434046494605F0E7FC0022DB
:1002F0004FF08043CDE90C01DDE9280105F0DEFC7B
:10030000CDE90A01DDE90C2306F004FA0022CE4B08
:10031000CDE90E0106F0BAFECDE9240142464B4676
:100320000020C94906F08CFCCDE90E0100204FF0F9
:100330008041DDE9262306F083FC42464B46CDE9A9
:10034000060106F07DFCCDE90A0100204FF0804156
:10035000DDE92A2306F074FCCDE90601DDE9282356
:1003600006F06EFCCDE90801DDE90A2306F0D2F9BA
:10037000CDE90C01DDE90E2306F088FECDE922016E
:1003800000224FF080434046494605F097FC00228A
:100390004FF08043CDE90E01DDE9260105F08EFC2A
:1003A00000224FF08043CDE90A01DDE92A0105F082
:1003B00085FCCDE90801DDE90A2306F0ABF9CDE9BA
:1003C0000C01DDE90E2306F061FECDE920010020DD
:1003D0004FF08041DDE9242306F032FCCDE90E0127
:1003E00000209949DDE9242306F02AFCCDE900012B
:1003F000DDE9202306F024FCCDE90401DDE9222318
:100400001046194606F01CFCCDE90201DDE9042383
:1004100006F03CFECDE9060106F040F9CDE90A01FF
:10042000002089494942DDE9222306F009FCCDE993
:100430000801DDE90A2306F029FECDE90C01DDE91A
:100440000E2306F023FA82468B467D480CC82046D0
:10045000294606F0F5FB52465B46CDE90E0106F053
:1004600059F9CDE918017649DDE92E2303C906F0D3
:10047000E7FB52465B46CDE90E0106F04BF9CDE9AC
:10048000160152465B4600206E4906F043F9CDE95D
:100490000C01DDE9182306F03DF900226B4BCDE994
:1004A0000E0106F0CDFBCDE914010022654BDDE91C
:1004B000140106F0EBFDCDE90A01DDE91823DDE9C1
:1004C000140106F0E3FD52465B46CDE90601DDE985
:1004D000140106F0DBFDCDE90201DDE9142306F08D
:1004E000AFFBCDE90401DDE9062306F0A9FBCDE968
:1004F0000801DDE90A2306F0A3FBCDE90C0106F0B3
:10050000CDF800224FF08043CDE90E0106F098FBB4
:10051000CDE9120100204B49DDE9182306F0FAF875
:10052000CDE90C01DDE9162306F0F4F80022474B73
:10053000CDE90E0106F084FB06460F4630463946EB
:10054000DDE9162306F0A2FDCDE90A013046394661
:10055000DDE9182306F09AFD00223A4BCDE90601A9
:100560003046394606F092FD32463B46CDE902015F
:1005700006F066FBCDE90401DDE9062306F060FB29
:10058000CDE90801DDE90A2306F05AFBCDE90C01AB
:1005900006F084F800224FF08043CDE90E0106F00A
:1005A0004FFBCDE910012A4ADDE9120103C2294AB5
:1005B000DDE9100103C230B0BDE8F09F30B585B071
:1005C00005460C460121042002F083FF012108208A
:1005D00002F072FF4FF46070ADF8100028208DF823
:1005E000130004A91C4802F0ABFC4FF460711A48D8
:1005F00002F055FDADF80850ADF804400020ADF80C
:100600000A00ADF8060001A9144803F0FFFA04201F
:100610001349088000204880012088800020C8807D
:1006200008810E4803F085FD08200D490880002050
:100630004880012088800020C8800881074811E098
:10064000000000200000F03F000010400000E03FEC
:100650001000002018000020000C0140000800409D
:100660005800002003F065FD0C20F74908800020A9
:100670004880012088800020C8800881F34803F06A
:1006800058FD1E208DF8000002208DF8010000208A
:100690008DF8020001208DF80300684603F079F917
:1006A00001221C21E94803F028FE00220121E7482D
:1006B00003F023FE0021E54804F098F80121E34807
:1006C00003F000FE05B030BDBEB000BF00BF00218A
:1006D000DF48CDE938100020189017911691159138
:1006E000149000BF00BF00BF00BF00BF00BF00BF2D
:1006F00000BF00BF00BF02F039FA02F0CDF94FF49D
:10070000E13002F0FEFA02F06DF802F05EF94FF40B
:10071000E13002F031FA47214FF6FF70FFF74EFF4C
:1007200001F0A1BE0020CA49CDE93C010021C94821
:10073000CDE93A10C4E0C8A002F07FFA9FE0C748B4
:1007400000780328FAD102F05BF90D9006F025FA43
:10075000CDE912010022C24BDDE9120106F096F844
:10076000CDE91201BFA0DDE9122304F089F80021D0
:10077000BF48C04AC2E9001010460CC8BEA004F031
:100780007FF8C04801881891BFA0189904F078F844
:10079000BC4841881791BFA0179904F071F8B94877
:1007A00081881691BEA0169904F06AF816991898D7
:1007B000091A1591DDE91710091A1491BBA01499B3
:1007C00004F05EF8BCA0159904F05AF8149806F0ED
:1007D000E4F9BC4ABC4BCDE90C0106F031FACDE995
:1007E0001001159806F0D9F9B64AB74BCDE90C01BE
:1007F00006F026FACDE90E01B4A0DDE9102304F0DD
:100800003FF8B5A0DDE90E2304F03AF8DDE90E2348
:10081000DDE91001FFF7FCFCB2480CC8CDE9362336
:10082000B1480CC8CDE93423B0A0DDE9362304F08B
:1008300027F8B2A0DDE9342304F022F80DE0B34834
:10084000007850B1B1480078462803D10020AF4964
:10085000087003E00020AD490870F0E700BFACA0CD
:1008600004F00EF84FF4FA7002F053F901221C2143
:10087000764803F042FD00207849087000E05EE70A
:1008800000BF4FF03332A34BDDE9360106F09CF98F
:1008900016D24FF033329F4BDDE9340106F094F964
:1008A0000ED29D4A9D4BDDE9360106F0C7FA07D20C
:1008B000994A9A4BDDE9340106F0C0FA00D200E013
:1008C00039E700BFDDE93601CDE93201DDE9340168
:1008D000CDE9300192A002F0B0F90DE08B4800782C
:1008E00050B18A480078462803D100208749087013
:1008F00003E0002085490870F0E700BFB5E352E14E
:1009000055A002F09AF90DE1544800780328FAD175
:1009100002F076F80D9006F040F9CDE912010022C0
:100920004F4BDDE9120105F0B1FFCDE912014DA0F9
:10093000DDE9122303F0A4FF00214D484D4AC2E92E
:10094000001010460CC84CA003F09AFF4D480188D7
:1009500018914DA0189903F093FF4A4841881791C8
:100960004CA0179903F08CFF4648818816914CA043
:10097000169903F085FF16991898091A1591DDE963
:100980001710091A149149A0149903F079FF4AA08D
:10099000159903F075FF149806F0FFF8494A4A4B81
:1009A000CDE90C0106F04CF9CDE91001159806F0DF
:1009B000F4F8444A444BCDE90C0106F041F9CDE985
:1009C0000E0142A0DDE9102303F05AFF42A0DDE949
:1009D0000E2303F055FFDDE90E23DDE91001FFF7DB
:1009E00017FC40480CC8CDE936233F480CC8CDE978
:1009F00034233EA0DDE9362303F042FF3FA0DDE9CA
:100A0000342303F03DFF0DE04048007850B13F48EB
:100A10000078462803D100203C49087003E00020FC
:100A20003A490870F0E700BF39A003F029FF4FF4FE
:100A3000FA7002F06EF801221C21044803F05DFCFC
:100A40000021064801706EE05800002000080040B8
:100A50000000F03F0000E03F4E0000000E000020CC
:100A60000000244074656D703A2566200A0000007D
:100A700000C0754000000020763A2566206D2F7377
:100A80000D0A000008000020413A25642075730D0E
:100A90000A000000423A25642075730D0A00000028
:100AA000433A25642075730D0A00000041423A253F
:100AB000642075730D0A000041433A256420757364
:100AC0000D0A00008DEDB5A0F7C6B03E61623A2573
:100AD0006620730D0A00000061633A256620730DDD
:100AE0000A00000010000020180000207365636FEA
:100AF0006E645F783A256620720A00007365636F42
:100B00006E645F793A256620720A00003800002082
:100B1000610D00003333F33F9A9999999999C93F30
:100B200047313000F0E600BF4FF03332F74BDDE9DC
:100B3000360106F049F836D24FF03332F34BDDE997
:100B4000340106F041F82ED2F14AF24BDDE93601CC
:100B500006F074F927D2EE4AEE4BDDE9340106F0D7
:100B60006DF920D2DDE93223DDE9360106F08EFA97
:100B700021F000414FF03332E74BCDE90C0106F094
:100B800023F810D2DDE93023DDE9340106F07EFAE6
:100B900021F000414FF03332DF4BCDE90C0106F07C
:100BA00013F800D200E0ABE600BFDDE93623CDE963
:100BB0002E23DDE93401CDE92C01D54AD74BDDE9FF
:100BC0003C0105F0A7FDCDE90C01DDE92E2306F07F
:100BD00035F90DD2CE4AD14BDDE93C0106F056FA8B
:100BE000CDE90C01DDE92E2305F0EEFF00D23DE258
:100BF000DDE93223DDE92E0106F048FA21F000415B
:100C0000CDE90A01DDE93023DDE92C0106F03EFAE9
:100C100021F00041CDE90801DDE90A2305F036FEA7
:100C2000CDE90C0104F038FFCDE926010020BC49D4
:100C3000DDE9262306F004F8BA4ABB4BCDE90C01E6
:100C400005F024FECDE92601DDE9260105F076FF59
:100C50002390DDE93023DDE92C0106F017FA0022AC
:100C60001346CDE90C0106F0E9F80ED8DDE9322390
:100C7000DDE92E0106F00AFA00221346CDE90C0147
:100C800006F0DCF801D223982390DDE93023DDE97A
:100C90002C0106F0FBF900221346CDE90C0106F009
:100CA000CDF810D2DDE93223DDE92E0106F0EEF9B0
:100CB00000221346CDE90C0105F086FF03D82398E6
:100CC000C0F1B4012391DDE93023DDE92C0106F008
:100CD000DDF900221346CDE90C0105F075FF0FD8B0
:100CE000DDE93223DDE92E0106F0D0F900221346BA
:100CF000CDE90C0105F068FF02D22398B4302390AF
:100D0000DDE93023DDE92C0106F0C0F900221346AD
:100D1000CDE90C0105F058FF10D2DDE93223DDE901
:100D20002E0106F0B3F900221346CDE90C0106F0BE
:100D300085F803D82398C0F5B4712391DDE92E23FB
:100D4000DDE93C0106F0A2F921F00041CDE90A01FC
:100D5000DDE92C23DDE93A0106F098F921F00041A4
:100D6000CDE90801DDE90A2305F090FDCDE90C018C
:100D700004F092FECDE92A0100206949DDE92A2329
:100D800005F05EFF674A684BCDE90C0105F07EFD7A
:100D9000CDE92A01DDE92A0105F0D0FE2990DDE93F
:100DA0002C23DDE93A0106F071F900221346CDE962
:100DB0000C0106F043F811D8DDE92E23DDE93C01F2
:100DC00006F064F900221346CDE90C0106F036F86E
:100DD00004D22998299055A003F052FDDDE92C2377
:100DE000DDE93A0106F052F900221346CDE90C0183
:100DF00006F024F813D2DDE92E23DDE93C0106F0EC
:100E000045F900221346CDE90C0105F0DDFE06D8B8
:100E10002998C0F1B401299145A003F031FDDDE925
:100E20002C23DDE93A0106F031F900221346CDE921
:100E30000C0105F0C9FE12D8DDE92E23DDE93C01E5
:100E400006F024F900221346CDE90C0105F0BCFEA2
:100E500005D22998B430299036A003F011FDDDE9C0
:100E60002C23DDE93A0106F011F900221346CDE901
:100E70000C0105F0A9FE13D2DDE92E23DDE93C01CA
:100E800006F004F900221346CDE90C0105F0D6FF67
:100E900006D82998C0F5B471299127A003F0F0FC79
:100EA00023992998401A219024A0219903F0E8FC65
:100EB000219800280ADD23A11DA8219A03F0ECFC4B
:100EC00021A001F0BAFE1DA801F0B7FE219800286C
:100ED0000BDC219842421BA11DA803F0DDFC1BA0E6
:100EE00001F0ABFE1DA801F0A8FE0DE01848007847
:100EF00050B117480078462803D1002014490870E3
:100F000028E0002012490870F0E700003333F33F77
:100F10009A9999999999C93F3333D33F9999A93FA0
:100F2000008066404AD8124DFB2109406100000054
:100F3000620000006300000064000000256420726D
:100F40000A000000256400004C0000005200000070
:100F50003800002000BFFEA1FEA003F091FCDDE9F7
:100F60002C23DDE93A0106F091F8CDE90401DDE931
:100F70002C23DDE93A0106F089F80022F74BCDE990
:100F8000000105F05DFECDE90201DDE9042305F075
:100F900057FE0022F14BCDE9060105F051FECDE9E7
:100FA0000A01DDE92E23DDE93C0106F06FF8CDE909
:100FB0000401DDE92E23DDE93C0106F067F800229B
:100FC000E64BCDE9000105F03BFECDE90201DDE98C
:100FD000042305F035FE0022E04BCDE9060105F0C3
:100FE0002FFECDE90801DDE90A2305F093FBCDE9E9
:100FF0000C0105F053FBCDE9240100224FF08043A2
:10100000DDE9240105F042FCCDE90C0105F096FD77
:1010100022902298122803DBD1A001F00EFE0BE0F3
:10102000AFF2E00119A8229A03F036FCCDA001F03E
:1010300004FE19A801F001FE0DE0CB48007850B184
:10104000C9480078462803D10020C749087003E04A
:101050000020C5490870F0E700BFDDE93601CDE9A1
:101060003201DDE93401CDE9300148E400BFBFA021
:1010700003F006FCAFF2206001F0DFFD0DE0BA489E
:10108000007850B1B8480078462803D10020B6490E
:10109000087003E00020B4490870F0E700BFAFF229
:1010A000486001F0CAFD0DE0AF48007850B1AE488D
:1010B0000078462803D10020AB49087003E00020E7
:1010C000A9490870F0E700BF0020AA49CDE93C011A
:1010D000A949CDE93A01D1E0AFF2846001F0ADFD5C
:1010E000ABE0A64800780328FAD101F089FC0D9006
:1010F00005F053FDCDE912010022A14BDDE91201FB
:1011000005F0C4FBCDE91201AFF2A860DDE91223BE
:1011100003F0B6FB00219B489B4AC2E90010104631
:101120000CC8AFF2AC6003F0ABFB98480188189193
:10113000AFF2AC60189903F0A3FB94484188179173
:10114000AFF2B060179903F09BFB9048818816912D
:10115000AFF2B460169903F093FB16991898091A28
:101160001591DDE91710091A1491AFF2C0601499B6
:1011700003F086FBAFF2C060159903F081FB149871
:1011800005F00BFD824A834BCDE90C0105F058FDBB
:10119000CDE91001159805F000FD7D4A7D4BCDE9A4
:1011A0000C0105F04DFDCDE90E01AFF2E060DDE987
:1011B000102303F065FBAFF2E060DDE90E2303F0DE
:1011C0005FFBDDE90E23DDE91001FFF721F872482E
:1011D0000CC8CDE9362371480CC8CDE93423AFF2F1
:1011E000F460DDE9362303F04BFBAFF2F060DDE99C
:1011F000342303F045FB0DE05B48007850B15A48BA
:101200000078462803D100205749087003E00020E9
:1012100055490870F0E700BFAFF20C7003F030FBE7
:101220004FF4FA7001F075FC01221C215C4803F0B8
:1012300064F800205149087000E052E700BF4FF009
:101240003332584BDDE9360105F0BEFC16D24FF0C3
:101250003332544BDDE9340105F0B6FC0ED2524A6C
:10126000524BDDE9360105F0E9FD07D24E4A4F4BFE
:10127000DDE9340105F0E2FD00D200E02CE700BF1B
:10128000DDE93601CDE93201DDE93401CDE9300196
:10129000AFF2747001F0D1FC0DE03348007850B12A
:1012A00031480078462803D100202F49087003E018
:1012B00000202D490870F0E700BF8EE322E1AFF671
:1012C000680001F0BAFCDCE02C4800780328FAD171
:1012D00001F096FB0D9005F060FCCDE912010022B3
:1012E000274BDDE9120105F0D1FACDE91201AFF685
:1012F0008C00DDE9122303F0C3FA00212148224AC1
:10130000C2E9001010460CC8AFF6940003F0B8FA1A
:101310001E4801881891AFF69000189903F0B0FAB2
:101320001A4841881791AFF69400179903F0A8FA6C
:10133000164881881691AFF69800169903F0A0FA26
:1013400016991898091A1591DDE91710091A2FE056
:10135000676F0000257320720A00000000005940EA
:1013600047323000470000003800002066696E698F
:10137000736800000000E03F0000F03F0E00002016
:101380000000244000C0754000000020080000203C
:101390008DEDB5A0F7C6B03E10000020180000206B
:1013A000000800403333F33F9A9999999999C93FBE
:1013B0001491AFF60810149903F062FAAFF6081012
:1013C000159903F05DFA149805F0E7FBFD4AFE4B12
:1013D000CDE90C0105F034FCCDE91001159805F0BC
:1013E000DCFBF84AF84BCDE90C0105F029FCCDE90E
:1013F0000E01AFF62810DDE9102303F041FAAFF635
:101400002810DDE90E2303F03BFADDE90E23DDE9C8
:101410001001FEF7FDFEED480CC8CDE93623EC487F
:101420000CC8CDE93423AFF63C10DDE9362303F0D8
:1014300027FAAFF63810DDE9342303F021FA0DE086
:10144000E448007850B1E3480078462803D10020F2
:10145000E049087003E00020DE490870F0E700BFB3
:10146000AFF6541003F00CFA4FF4FA7001F051FB90
:1014700001221C21D84802F040FF0020D749087003
:1014800000E021E700BF4FF03332D54BDDE93601F4
:1014900005F09AFB36D24FF03332D14BDDE93401FF
:1014A00005F092FB2ED2CF4ACF4BDDE9360105F095
:1014B000C5FC27D2CB4ACC4BDDE9340105F0BEFC9C
:1014C00020D2DDE93223DDE9360105F0DFFD21F030
:1014D00000414FF03332C54BCDE90C0105F074FBF0
:1014E00010D2DDE93023DDE9340105F0CFFD21F034
:1014F00000414FF03332BD4BCDE90C0105F064FBE8
:1015000000D200E0DBE600BFDDE93623CDE92E2383
:10151000DDE93401CDE92C01B24AB54BDDE93C01EE
:1015200005F0F8F8CDE90C01DDE92E2305F086FC85
:101530000DD2AC4AAE4BDDE93C0105F0A7FDCDE98B
:101540000C01DDE92E2305F03FFB00D246E2DDE988
:101550003223DDE92E0105F099FD21F00041CDE9AE
:101560000A01DDE93023DDE92C0105F08FFD21F0D2
:101570000041CDE90801DDE90A2305F087F9CDE94D
:101580000C0104F089FACDE9260100209949DDE932
:10159000262305F055FB984A984BCDE90C0105F040
:1015A00075F9CDE92601DDE9260105F0C7FA23909A
:1015B000DDE93023DDE92C0105F068FD002213464A
:1015C000CDE90C0105F03AFC0ED8DDE93223DDE966
:1015D0002E0105F05BFD00221346CDE90C0105F05C
:1015E0002DFC01D223992391DDE93023DDE92C0183
:1015F00005F04CFD00221346CDE90C0105F01EFC60
:1016000010D2DDE93223DDE92E0105F03FFD002295
:101610001346CDE90C0105F0D7FA03D82398C0F1A1
:10162000B4012391DDE93023DDE92C0105F02EFD25
:1016300000221346CDE90C0105F0C6FA0FD8DDE90A
:101640003223DDE92E0105F021FD00221346CDE90C
:101650000C0105F0B9FA02D22398B4302390DDE9E9
:101660003023DDE92C0105F011FD00221346CDE900
:101670000C0105F0A9FA10D2DDE93223DDE92E01D3
:1016800005F004FD00221346CDE90C0105F0D6FB60
:1016900003D82398C0F5B4712391DDE92E23DDE949
:1016A0003C0105F0F3FC21F00041CDE90A01DDE940
:1016B0002C23DDE93A0105F0E9FC21F00041CDE9F8
:1016C0000801DDE90A2305F0E1F8CDE90C0104F099
:1016D000E3F9CDE92A0100204649DDE92A2305F096
:1016E000AFFA454A454BCDE90C0105F0CFF8CDE9FD
:1016F0002A01DDE92A0105F021FA2990DDE92C23F0
:10170000DDE93A0105F0C2FC00221346CDE90C01E7
:1017100005F094FB12D8DDE92E23DDE93C0105F04C
:10172000B5FC00221346CDE90C0105F087FB05D27C
:1017300029982990AFF60C0003F0A2F8DDE92C23DC
:10174000DDE93A0105F0A2FC00221346CDE90C01C7
:1017500005F074FB14D2DDE92E23DDE93C0105F030
:1017600095FC00221346CDE90C0105F02DFA07D8AF
:101770002998C0F1B4012991AFF64C0003F080F82C
:10178000DDE92C23DDE93A0105F080FC0022134657
:10179000CDE90C0105F018FA34D8DDE92E23DDE996
:1017A0003C0105F073FC00221346CDE90C0105F065
:1017B0000BFA27D2299800F1B4012991AFF68C00D9
:1017C0001EE000008DEDB5A0F7C6B03E1000002071
:1017D0001800002038000020000800400E00002003
:1017E0003333F33F9A9999999999C93F3333D33F4A
:1017F0009999A93F008066404AD8124DFB210940C3
:1018000003F03EF8DDE92C23DDE93A0105F03EFC6A
:1018100000221346CDE90C0105F0D6F914D2DDE91A
:101820002E23DDE93C0105F031FC00221346CDE911
:101830000C0105F003FB07D82998C0F5B471299174
:10184000AFF60C1003F01CF829992398091A21917E
:10185000AFF61810219903F013F8219800280CDD39
:10186000AFF620111DA8219A03F016F8AFF6281044
:1018700001F0E3F91DA801F0E0F9219800280DDC42
:1018800021984242AFF644111DA803F005F8AFF6C7
:10189000441001F0D2F91DA801F0CFF90DE0FE4887
:1018A000007850B1FC480078462803D10020FA495E
:1018B000087003E00020F8490870F0E700BFAFF2BD
:1018C0007051AFF2705002F0DBFFDDE92C23DDE94F
:1018D0003A0105F0DBFBCDE90401DDE92C23DDE96C
:1018E0003A0105F0D3FB0022EC4BCDE9000105F0F5
:1018F000A7F9CDE90201DDE9042305F0A1F90022F1
:10190000E64BCDE9060105F09BF9CDE90A01DDE9D9
:101910002E23DDE93C0105F0B9FBCDE90401DDE949
:101920002E23DDE93C0105F0B1FB0022DB4BCDE9C4
:10193000000105F085F9CDE90201DDE9042305F098
:101940007FF90022D54BCDE9060105F079F9CDE903
:101950000801DDE90A2304F0DDFECDE90C0104F005
:101960009DFECDE9240100224FF08043DDE92401F2
:1019700004F08CFFCDE90C0105F0E0F822902298EC
:10198000122804DBAFF2286001F057F90CE0AFF643
:101990004C2119A8229A02F07FFFAFF2386001F0C3
:1019A0004CF919A801F049F90DE0BB48007850B195
:1019B000B9480078462803D10020B749087003E0F1
:1019C0000020B5490870F0E700BFDDE93601CDE938
:1019D0003201DDE93401CDE930016FE400BFAFF23F
:1019E000746002F04DFFAFF6907001F026F90DE043
:1019F000A948007850B1A8480078462803D10020B3
:101A0000A549087003E00020A3490870F0E700BF73
:101A1000AFF6BC7001F011F90DE09F48007850B1AD
:101A20009D480078462803D100209B49087003E0B8
:101A3000002099490870F0E700BF00209849CDE9DF
:101A40003C01CDE93A01AFF6F07001F0F6F80DE097
:101A50009148007850B190480078462803D1002082
:101A60008D49087003E000208B490870F0E700BF43
:101A70004FF033328B4BDDE9380104F04BFECDE9FA
:101A80000C01DDE92C2305F09FF803D286A001F0BC
:101A9000D4F824E0864A874BDDE9380104F03AFEA9
:101AA000CDE90C01DDE92C2305F08EF803D282A0EC
:101AB00001F0C3F813E07E4A7E4BDDE9380105F002
:101AC000E5FACDE90C01DDE92C2305F0B7F903D2E5
:101AD0007BA001F0B2F802E07AA001F0AEF80DE0D0
:101AE0006D48007850B16C480078462803D100203A
:101AF0006949087003E0002067490870F0E700BFFB
:101B000071A002F0BDFE0CE171A001F096F8AAE010
:101B10007048007803287CD100F072FF0D9005F02A
:101B20003CF8CDE9120100226B4BDDE9120104F013
:101B3000ADFECDE912016948DDE9122302F0A0FEF5
:101B400000206749674A03C266480CC863481430DE
:101B500002F096FE64480188189160482430189974
:101B600002F08EFE6048418817915C48303017992A
:101B700002F086FE5C488188169158483C301699E0
:101B800002F07EFE16991898091A1591DDE91710D2
:101B9000091A149151484830149902F071FE4F48C7
:101BA0005430159902F06CFE149804F0F6FF4F4A79
:101BB0004F4BCDE90C0105F043F8CDE91001159824
:101BC00004F0EBFF494A4A4BCDE90C0105F038F827
:101BD000CDE90E0141486830DDE9102302F050FEE6
:101BE0003E487430DDE90E2302F04AFEDDE90E23A3
:101BF000DDE91001FEF70CFB3E480CC8CDE93623A9
:101C00003D480CC8CDE9342334488830DDE936231B
:101C100000E028E002F034FE30489830DDE934235B
:101C200002F02EFE0DE01C48007850B11A480078F2
:101C3000462803D100201849087003E00020164907
:101C40000870F0E700BF2DA002F01AFE4FF4FA7002
:101C500000F05FFF01221C21294802F04EFB00200A
:101C60001C49087000E053E700BF4FF03332254BAA
:101C7000DDE9360104F0A8FF53D24FF03332214B97
:101C8000DDE9340104F0A0FF4BD21F4A1F4BDDE910
:101C9000360105F0D3F83BE0380000200000594041
:101CA0000000E03F3333C33F4C31353000000000CB
:101CB0007B14AE47E17AB43F4C3132300000000073
:101CC0004C3630004C3930004C39300D00000000EB
:101CD0004E0000000E00002000002440640A0008AE
:101CE00000C0754000000020080000208DEDB5A068
:101CF000F7C6B03E1000002018000020610D000063
:101D0000000800403333F33F9A9999999999C93F54
:101D100007D2FE4AFE4BDDE9340105F08FF800D210
:101D200000E0F1E600BFDDE93601CDE93201DDE991
:101D30003401CDE93001F74800F07FFF0DE0F648AF
:101D4000007850B1F4480078462803D10020F249C9
:101D5000087003E00020F0490870F0E700BF77E367
:101D6000F3E0AFF2940000F068FFADE0EB480078DC
:101D700003287CD100F044FE0D9004F00EFFCDE965
:101D800012010022E64BDDE9120104F07FFDCDE9EE
:101D90001201E048BC38DDE9122302F071FD002198
:101DA000E048E14AC2E9001010460CC8D948A838FA
:101DB00002F066FDDD4801881891D64898381899D8
:101DC00002F05EFDD94841881791D2488C381799A6
:101DD00002F056FDD54881881691CE488038169974
:101DE00002F04EFD16991898091A1591DDE91710A1
:101DF000091A1491C7487438149902F041FDC54876
:101E00006838159902F03CFD149804F0C6FEC84AE3
:101E1000C84BCDE90C0104F013FFCDE91001159872
:101E200004F0BBFEC24AC34BCDE90C0104F008FF2D
:101E3000CDE90E01B7485438DDE9102302F020FD4A
:101E4000B4484838DDE90E2302F01AFDDDE90E231F
:101E5000DDE91001FEF7DCF9B7480CC8CDE93623FF
:101E6000B6480CC8CDE93423AA48343800E02BE04A
:101E7000DDE9362302F004FDA6482438DDE93423E9
:101E800002F0FEFC0DE0A448007850B1A2480078B2
:101E9000462803D10020A049087003E000209E4995
:101EA0000870F0E700BFAFF2AC1002F0E9FC4FF4AD
:101EB000FA7000F02EFE01221C21A14802F01DFA4A
:101EC00000209649087000E050E700BF4FF0333221
:101ED0009C4BDDE9360104F077FE36D24FF0333209
:101EE000984BDDE9340104F06FFE2ED2874A884B0F
:101EF000DDE9360104F0A2FF27D2844A844BDDE9F4
:101F0000340104F09BFF20D2DDE93223DDE9360104
:101F100005F0BCF821F000414FF033328A4BCDE997
:101F20000C0104F051FE10D2DDE93023DDE934016B
:101F300005F0ACF821F000414FF03332824BCDE98F
:101F40000C0104F041FE00D200E00AE700BFDDE929
:101F50003623CDE92E23DDE93401CDE92C017B4A7E
:101F60007B4BDDE93C0104F0D5FBCDE90C01DDE95B
:101F70002E2304F063FF27D2744A754BDDE93C0140
:101F800005F084F8CDE90C01DDE92E2304F01CFEF8
:101F90001AD26E4A6E4BDDE93A0105F077F8CDE9C9
:101FA0000C01DDE92C2304F00FFE0DD2674A684BCB
:101FB000DDE93A0104F0AEFBCDE90C01DDE92C23AB
:101FC00004F03CFF00D244E2DDE93223DDE92E01DA
:101FD00005F05CF821F00041CDE90A01DDE930238C
:101FE000DDE92C0105F052F821F00041CDE90801AE
:101FF000DDE90A2304F04AFCCDE90C0103F04CFDB5
:10200000CDE9260100205349DDE9262304F018FE1E
:10201000514A524BCDE90C0104F038FCCDE92601C0
:10202000DDE9260104F08AFD2390DDE93023DDE9B6
:102030002C0105F02BF800221346CDE90C0104F029
:10204000FDFE0ED8DDE93223DDE92E0105F01EF894
:1020500000221346CDE90C0104F0F0FE01D22398D2
:102060002390DDE93023DDE92C0105F00FF8002293
:102070001346CDE90C0104F0E1FE10D2DDE9322374
:10208000DDE92E0105F002F800221346CDE90C012E
:1020900004F09AFD03D82398C0F1B4012391DDE93F
:1020A0003023DDE92C0104F0F1FF00221346CDE9D5
:1020B0000C0104F089FD0FD8DDE93223DDE92E01A2
:1020C00004F0E4FF00221346CDE90C0104F07CFD8E
:1020D00002D22398B4302390DDE93023DDE92C01CE
:1020E00004F0D4FF00221346CDE90C0104F06CFD8E
:1020F0003BD2DDE93223DDE92E0104F0C7FF0022E7
:102100001346CDE90C0104F099FE29E09A999999BA
:102110009999C93F200B0008380000200E000020CC
:102120000000244000C0754000000020080000208E
:102130008DEDB5A0F7C6B03E1000002018000020BD
:10214000000800403333F33F3333D33FB81E85EBF1
:1021500051B89E3F008066404AD8124DFB2109408D
:1021600003D82398C0F5B4712391DDE92E23DDE96E
:102170003C0104F08BFF21F00041CDE90A01DDE9CB
:102180002C23DDE93A0104F081FF21F00041CDE983
:102190000801DDE90A2304F079FBCDE90C0103F025
:1021A0007BFCCDE92A010020FC49DDE92A2304F06B
:1021B00047FDFB4AFB4BCDE90C0104F067FBCDE981
:1021C0002A01DDE92A0104F0B9FC2990DDE92C237C
:1021D000DDE93A0104F05AFF00221346CDE90C0173
:1021E00004F02CFE11D8DDE92E23DDE93C0104F0DA
:1021F0004DFF00221346CDE90C0104F01FFE04D26E
:1022000029982990E8A002F03BFBDDE92C23DDE9C9
:102210003A0104F03BFF00221346CDE90C0104F023
:102220000DFE13D2DDE92E23DDE93C0104F02EFF83
:1022300000221346CDE90C0104F0C6FC06D829980B
:10224000C0F1B4012991D9A002F01AFBDDE92C23D9
:10225000DDE93A0104F01AFF00221346CDE90C0132
:1022600004F0B2FC12D8DDE92E23DDE93C0104F0D4
:102270000DFF00221346CDE90C0104F0A5FC05D2A8
:102280002998B4302990CAA002F0FAFADDE92C238B
:10229000DDE93A0104F0FAFE00221346CDE90C0113
:1022A00004F092FC13D2DDE92E23DDE93C0104F0B9
:1022B000EDFE00221346CDE90C0104F0BFFD06D867
:1022C0002998C0F5B4712991BAA002F0D9FA2999D8
:1022D0002398091A2191B848219902F0D1FA21983E
:1022E00000280ADDB5A11DA8219A02F0D5FAB4A0F4
:1022F00000F0A3FC1DA800F0A0FC219800280BDC36
:1023000021984242ADA11DA802F0C6FAADA000F08E
:1023100094FC1DA800F091FC0DE0AB48007850B192
:10232000A9480078462803D10020A749087003E097
:102330000020A5490870F0E700BFAFF6EC71AFF6DA
:10234000EC7002F09DFADDE92C23DDE93A0104F09E
:102350009DFECDE90401DDE92C23DDE93A0104F01D
:1023600095FE0022994BCDE9000104F069FCCDE90E
:102370000201DDE9042304F063FC0022934BCDE964
:10238000060104F05DFCCDE90A01DDE92E23DDE95B
:102390003C0104F07BFECDE90401DDE92E23DDE9FB
:1023A0003C0104F073FE0022884BCDE9000104F0EB
:1023B00047FCCDE90201DDE9042304F041FC0022E1
:1023C000824BCDE9060104F03BFCCDE90801DDE9D3
:1023D0000A2304F09FF9CDE90C0104F05FF9CDE97F
:1023E000240100224FF08043DDE9240104F04EFA7D
:1023F000CDE90C0104F0A2FB22902298122803DB05
:1024000073A000F01AFC0AE06CA119A8229A02F04D
:1024100043FA70A000F011FC19A800F00EFC0DE0CA
:102420006948007850B168480078462803D10020F8
:102430006549087003E0002063490870F0E700BFB9
:10244000DDE93601CDE93201DDE93401CDE93001C4
:1024500086E400BF06E0604802F012FA4FF47A709A
:1024600000F057FBF7E7FEF75DB910B504215B48B4
:1024700002F0F1F958B35A48007888B90020594958
:1024800008800021554802F0B1F900220421534888
:1024900001F033FF52480078401C5149087016E0A3
:1024A0004F480078012803D04D48007802280ED10B
:1024B0004A4802F0BEF94B490880002204214748EF
:1024C00001F01BFF46480078401C45490870082170
:1024D000424802F0C0F958B34148007888B900205A
:1024E0004049488000213D4802F080F9002208213F
:1024F0003A4801F002FF3A480078401C3849087019
:1025000016E037480078012803D0354800780228C3
:102510000ED1324802F08DF932494880002208215C
:102520002E4801F0EAFE2E480078401C2C49087025
:1025300010212A4802F08FF958B32948007888B949
:102540000021264802F052F900221021234801F010
:10255000D4FE00202349888021480078401C20496F
:10256000087016E01E480078012803D01C48007847
:1025700002280ED1194802F05CF91A49888000221D
:102580001021164801F0B9FE15480078401C144986
:1025900008701C21114802F06FF910BD00806640E0
:1025A0004AD8124DFB210940610000006200000082
:1025B00063000000640000003C0F00082564000078
:1025C0004C0000005200000038000020000059407C
:1025D00047313500470000006C1300080008004038
:1025E0000E00002008000020704700BFFEE700BF7B
:1025F000FEE700BFFEE700BFFEE770477047704789
:10260000704700000CB50020019000906C480068F5
:1026100040F480306A49086000BF6948006800F4EF
:10262000003000900198401C0190009818B9019862
:10263000B0F5A06FF1D16248006800F4003010B12D
:102640000120009001E0002000900098012843D173
:102650005C48006840F010005A490860084600686D
:1026600020F0030008600846006840F0020008609F
:1026700053484068524948600846406848600846E8
:10268000406840F4806048600846406820F47C1050
:1026900048600846406840F4E81048600846006812
:1026A00040F08070086000BF4548006800F000708E
:1026B0000028F9D04248406820F0030040494860B3
:1026C0000846406840F00200486000BF3C4840684F
:1026D00000F00C000828F9D10CBD10B5FFF792FFEF
:1026E00010BD10B53648006840F00100344908605C
:1026F0000846406834490840314948600846006847
:10270000324908402E4908600846006820F48020BD
:1027100008600846406820F4FE0048604FF41F003F
:102720008860FFF7DAFF4FF000602949086010BDAC
:1027300010B5002100200022214B5B6803F00C0142
:1027400021B1042906D0082928D107E0214B224CC9
:10275000236027E01F4B204C236023E0184B5B686D
:1027600003F47010164B5B6803F48032022303EB12
:10277000904022B9194B4343174C23600DE0104B96
:102780005B6803F4003323B1144B4343124C2360C2
:1027900003E0104B4343104C236003E00D4B0E4C01
:1027A000236000BF00BF064B5B68C3F303130C4CF0
:1027B000E15C094B1B68CB40074C236010BD000057
:1027C00000100240002002400000FFF8FFFFF6FE6C
:1027D00008ED00E000127A002000002000093D0012
:1027E0002400002008B50121242000F065FE4FF4EC
:1027F0008070ADF8000010208DF8030003208DF8E4
:1028000002006946094800F09BFB4FF480710748BD
:1028100000F043FC0420ADF800006946044800F0D5
:102820008FFB0421024800F038FC08BD000801407D
:102830000014014010B59448006820F00F00924940
:1028400008600846006840F00300086000208F49D7
:10285000086040F2EE2000F038F901208C49C1F800
:1028600080010F2000F031F910BD10B5002486481A
:10287000006820F00F00844908600846006840F0B6
:102880000800086004E0601CC4B2012000F01DF9DB
:102890007E488038006808B1C82CF4DBC82C01DB06
:1028A000012010BD002404E0601CC4B2012000F02F
:1028B0000CF976488038006808B9F02CF4DBF02C6D
:1028C00001DB0120EDE70020EBE710B56E48006862
:1028D00020F00F006C4908600846006840F00300D3
:1028E0000860002069490860022000F0EEF801202D
:1028F0006749C1F880016448006820F00F00624910
:1029000008600846006840F0080008600C2000F0ED
:10291000DCF85E488038006808B1012400E000243B
:10292000322000F0D2F8204610BD70B500260125F7
:1029300008E0FFF7CAFF0446E00140EA6600C6B2BD
:10294000681CC5B2082DF4DD304670BD70B5044674
:102950004D48006820F00F004B49086008460068A9
:1029600040F003000860012520E004F00106641037
:102970006EB1002045490860022000F0A6F8012051
:102980004349C1F880013C2000F09FF80CE0002092
:102990003E4908603C2000F098F801203C49C1F80D
:1029A0008001022000F091F8681CC5B2082DDCDD22
:1029B00070BD10B5FFF73EFFFFF757FFCC20FFF7C4
:1029C000C5FF4420FFF7C2FF10BD08B50121042058
:1029D00000F072FD0120ADF8000010208DF803001A
:1029E00003208DF802006946274800F0A9FA01216A
:1029F000254800F052FBFFF71DFFFFF736FF08BD2B
:102A00002DE9F84FFFF7D5FFFFF714FFFFF72DFF74
:102A1000CC20FFF79BFFBE20FFF798FFFFF785FF55
:102A20008346FFF782FF0446072C08DDE043C4B26B
:102A30006FEA0B0000F0FF0B4FF0000A01E04FF0CF
:102A4000010AA1464FEA09200FFA80F909EB0B00B1
:102A50000FFA80F9484604F02FFC009004F000FCC7
:102A6000074600220B4B04F0EBF8054604F066F82D
:102A70000FFA80F9BAF1000F02D04846BDE8F88F8E
:102A8000C9F1000000B2F9E70008014080012142CD
:102A9000000021420000E43F10B56FF0040000F098
:102AA000C2FF2E4800682E49B0FBF1F02D49087096
:102AB0000846007800EB4001C1EBC0104FF6FF71F3
:102AC00001EAC0002849088010BD0146254A127855
:102AD0004A434FF0E0235A6100229A611A46126974
:102AE00042F001021A6100BF4FF0E022106900F0CD
:102AF00001021AB100F48032002AF5D04FF0E02232
:102B0000126922F001024FF0E0231A6100229A615B
:102B100070470146144A12884A434FF0E0235A6135
:102B200000229A611A46126942F001021A6100BF3E
:102B30004FF0E022106900F001021AB100F4803277
:102B4000002AF5D04FF0E022126922F001024FF086
:102B5000E0231A6100229A617047000020000020E3
:102B600000127A00340000203600002010B54FF427
:102B7000A06000F009FF10BD10B586B00446012129
:102B8000082000F099FC0121880400F0A2FC4FF419
:102B90008060ADF8140018208DF8170003208DF820
:102BA000160005A99D4800F0CBF94FF40060ADF880
:102BB000140004208DF8170005A9984800F0C0F90A
:102BC00001940020ADF80800ADF80A00ADF80C0043
:102BD000ADF810000C20ADF80E0001A9904800F0EF
:102BE00012FD4FF4A06000F0CFFE27208DF800000A
:102BF00000208DF801008DF8020001208DF80300FF
:102C0000684600F0C6FE012240F22551844800F0DB
:102C100092FD0121824800F082FD06B010BD10B582
:102C2000044621467E4800F0E7FD00BF40217C4875
:102C300000F050FE0028F9D010BD10B5044603E0A6
:102C400014F8010BFFF7EBFF20780028F8D110BD36
:102C500010B540F22551724800F052FE012840D1D3
:102C600040F225516E4800F042FE6D4800F0C8FD6C
:102C70006C4908706C48008800F4004088BB6A48C2
:102C8000008800F4804070B1084600780A2803D01C
:102C900000206549088024E06348008840F4004033
:102CA000614908801DE05F4800780D2806D15E4824
:102CB000008840F480405C49088012E05948007860
:102CC00059490988C1F30D01584A505456480088A3
:102CD000401C5549088008460088C72801DD0020AF
:102CE000088010BD014600BF704700BF504A1288DF
:102CF00002F04002002AF9D0C2B24D4B1B1D1A80CF
:102D0000704710B586B00446012144F2040000F07B
:102D1000D3FB474800F034FC4FF40070ADF81400CA
:102D200003208DF8160018208DF8170005A94148DA
:102D300000F006F94FF48060ADF8140004208DF81F
:102D4000170005A93B4800F0FBF825208DF800008E
:102D500003208DF801008DF8020001208DF803009A
:102D6000684600F016FE01940020ADF80800ADF8AA
:102D70000A00ADF80C00ADF810000C20ADF80E0004
:102D800001A92B4800F03FFC012240F225512848C0
:102D900000F0D1FC0121264800F0C1FC06B010BDB6
:102DA00010B540F22551224800F0AAFD10B320488A
:102DB00000F026FDC4B22048008800F40040C8B9E5
:102DC0001D48008800F4804060B10A2C03D0002028
:102DD0001949088020E01848008840F4004016494E
:102DE000088019E00D2C06D11348008840F480407B
:102DF0001149088010E010480088C0F30D000F4909
:102E00000C540D480088401C0B4908800846008877
:102E1000C72801DD0020088010BD0000000C014023
:102E200000480040380000203A00002062000020E6
:102E30000038014000080140400000202A01002025
:102E40000948804709480047FEE7FEE7FEE7FEE73E
:102E5000FEE7FEE7FEE7FEE7FEE7FEE7044805497A
:102E6000054A064B70470000E326000831010008C0
:102E70005802002058080020580400205804002060
:102E800010B50446CC48844208D10121042000F04A
:102E90002DFB0021042000F029FB46E0C7488442B6
:102EA00008D10121082000F021FB0021082000F0BA
:102EB0001DFB3AE0C248844208D10121102000F0F5
:102EC00015FB0021102000F011FB2EE0BD488442CC
:102ED00008D10121202000F009FB0021202000F072
:102EE00005FB22E0B848844208D10121402000F0CF
:102EF000FDFA0021402000F0F9FA16E0B3488442C0
:102F000008D10121802000F0F1FA0021802000F09A
:102F1000EDFA0AE0AE48844207D10121801500F0A5
:102F2000E5FA0021A01500F0E1FA10BD10B501216D
:102F3000084600F0DBFA0021012000F0D7FA10BDAE
:102F40002DE9F04102460025002600200023002440
:102F5000002791F803C00CF00F0591F803C00CF0A6
:102F6000100CBCF1000F03D091F802C04CEA05052B
:102F700091F800C0BCF1000F31D0146800202BE0A4
:102F80004FF0010C0CFA00F3B1F800C00CEA030694
:102F90009E4220D183004FF00F0C0CFA03F7BC4384
:102FA00005FA03FC4CEA040491F803C0BCF1280FB5
:102FB00006D14FF0010C0CFA00FCC2F814C00AE074
:102FC00091F803C0BCF1480F05D14FF0010C0CFA89
:102FD00000FCC2F810C0401C0828D1D31460B1F81E
:102FE00000C0BCF1FF0F34DD546800202EE000F17A
:102FF000080C4FF0010808FA0CF3B1F800C00CEA15
:1030000003069E4221D183004FF00F0C0CFA03F708
:10301000BC4305FA03FC4CEA040491F803C0BCF17C
:10302000280F05D100F1080C08FA0CF8C2F814803A
:1030300091F803C0BCF1480F07D100F1080C4FF024
:10304000010808FA0CF8C2F81080401C0828CED3FA
:103050005460BDE8F0814FF6FF710180022181705C
:103060000421C17070470246002093680B400BB1E9
:10307000012000E0002070470146886880B2704758
:1030800002460020D3680B400BB1012000E0002075
:1030900070470146C86880B270470161704741615E
:1030A00070470AB1016100E041617047C16070473B
:1030B0004FF480320A438261816182618269826950
:1030C000704702460020434B18684FF68073184043
:1030D00040EA021008433F4B186070473E49C86100
:1030E0007047F0B50A46002300240021002500F0B7
:1030F0000046B6F1004F02D1364EF16901E0354E7F
:103100007168C0F3034583B200F44016B6F5401F62
:1031100008D121F070612F4E766826F070662D4F31
:103120007E6012E000F48016B6F5801F06D10326FB
:1031300006FA05F4A14341F0706106E0460D360140
:1031400003FA06F6B14341F0706122B1460D360133
:1031500003FA06F6314300F00046B6F1004F02D103
:103160001C4EF16101E01B4E7160F0BD30B50022D4
:103170008B071C0F0F2303FA04F2164B08338C1035
:1031800053F824309343134C08348D1044F8253001
:1031900023468C1053F824308C07240F00FA04F4D3
:1031A00023430C4C08348D1044F8253030BD0A49B7
:1031B000DC3108607047000000080140000C01404D
:1031C000001001400014014000180140001C0140A3
:1031D000002001400000014000002042DF4800685C
:1031E00040F00100DD49086008464068DC490840BD
:1031F000DA49486008460068DA490840D74908605B
:103200000846006820F4802008600846406820F4E2
:10321000FE0048604FF41F0088607047CF4909687E
:1032200021F48031CD4A11601146096821F48021D2
:103230001160B0F5803F03D0B0F5802F0ED106E0CD
:10324000C649096841F48031C44A116007E0C349A6
:10325000096841F4A021C14A116000E000BF00BF2D
:10326000704710B501460022002300204A11012AB0
:1032700002D1BA4C236806E0022A02D1B74C236A75
:1032800001E0B64C636A01F01F02012494401C4027
:103290000CB1012000E0002010BD38B500200090E6
:1032A0000024002500BF3120FFF7DBFF0546009812
:1032B000401C00900098B0F5A06F01D0002DF2D016
:1032C0003120FFF7CEFF08B1012400E000242046A2
:1032D00038BD01460020A14A106820F0F80040EAFD
:1032E000C10010607047A049086070470246002086
:1032F0009A4B586820F47C1042EA01031843974B1C
:103300005860704798490866704701460020934A04
:10331000506820F003000843506070478F484068B1
:1033200000F00C007047014600208C4A506820F0E5
:10333000F00008435060704701460020874A5068FB
:1033400020F4E06008435060704701460020834A43
:10335000506820F4605040EAC1005060704729B1C5
:103360007E4A527A02437D4B5A7204E07B4A527A7B
:1033700082437A4B5A7270477B49D8310860704754
:1033800001460020754A506820F4404008435060D0
:1033900070470021714A20321170704A82F8201063
:1033A000012802D004280AD104E001216B4A20320E
:1033B000117005E00521694A2032117000E000BF5C
:1033C00000BF70476949086070476449096A014352
:1033D000624A11627047654944390860704730B5E8
:1033E00000210022002400235C4D6D6805F00C01D3
:1033F00021B1042905D0082923D105E05C4D0560E1
:1034000022E05B4D05601FE0544D6D6805F47012BD
:10341000524D6D6805F48034022505EB92421CB9CB
:10342000544D554305600BE04C4D6D6805F4003577
:103430001DB1504D5543056002E04D4D55430560AB
:1034400002E04B4D056000BF00BF444D6D6805F0C4
:10345000F0010909484D6B5C0568DD4045603F4D52
:103460006D6805F4E061090A434D6B5C4568DD4019
:1034700085603A4D6D6805F46051C90A3E4D6B5C3C
:103480004568DD40C560354D6D6805F44041890BE8
:103490003A4D6B5CC568B5FBF3F5056130BD29B1EC
:1034A0002E4A526902432D4B5A6104E02B4A52695D
:1034B00082432A4B5A61704729B1284A92690243D4
:1034C000264B9A6104E0254A92698243234B9A6114
:1034D000704729B1214AD2690243204BDA6104E0E6
:1034E0001E4AD26982431D4BDA61704729B11B4ADB
:1034F000D2680243194BDA6004E0184AD26882436A
:10350000164BDA60704729B1144A12690243134B13
:103510001A6104E0114A12698243104B1A61704724
:1035200012494039086070470F49C86470470B4919
:10353000C87170470948406A40F080700749486286
:10354000704701460020054A92680A400AB10120EE
:1035500000E0002070470149887270470010024067
:103560000000FFF8FFFFF6FE0000424280044242E6
:1035700000127A0000093D004200002052000020A5
:1035800010B50446FB48844209D101218803FFF7A6
:10359000ADFF00214FF48040FFF7A8FF32E0F6486E
:1035A000844209D101214804FFF7ADFF00214FF407
:1035B0000030FFF7A8FF25E0F048844209D101213F
:1035C0008804FFF7A0FF00214FF48020FFF79BFF46
:1035D00018E0EB48844209D10121C804FFF793FFAA
:1035E00000214FF40020FFF78EFF0BE0E5488442F6
:1035F00008D101210805FFF786FF00214FF4801054
:10360000FFF781FF10BD2DE9F04786B005460E4655
:103610000024A24600BFA1460027B08900B100BF28
:103620002F462C8A4CF6FF700440F08804432C820D
:10363000AC894EF6F3100440B08831890843718993
:1036400008430443AC81AC8A4FF6FF400440B08984
:103650000443AC8201A8FFF7C2FEC648874202D1EC
:10366000DDF810A001E0DDF80CA0A88900F400400E
:1036700040B10AEBCA0000EB0A1031684900B0FB08
:10368000F1F807E00AEBCA0000EB0A103168890084
:10369000B0FBF1F86420B8FBF0F0040120096421CC
:1036A00001FB1089A88900F4004040B1322000EBF2
:1036B000C900B0FBF1F000F00700044308E032203D
:1036C00000EB09106421B0FBF1F000F00F0004439F
:1036D0002C8106B0BDE8F0874FF41651016000213F
:1036E0008180C18001810C2141810021818170474D
:1036F00010B502460020108A4FF2FF0318400B88D5
:103700004C8823438C882343CC882343184310825E
:1037100010BD0021018041808180C180704721B1AE
:10372000828942F40052828104E082894DF6FF735F
:103730001A4082817047F0B5034600240026002518
:10374000002040F66A17B94200D100BF1846C1F305
:10375000421401F01F06012707FA06F5012C01D1DA
:103760000C3004E0022C01D1103000E014301AB10A
:1037700007682F43076002E00768AF430760F0BDAA
:103780001AB1838A0B43838202E0838A8B4383824C
:103790007047028A4FF6F0731A400282028A0A4387
:1037A0000282704782894FF2FF731A4082818289B8
:1037B0000A438281704721B1828942F002028281EC
:1037C00004E082894FF6FD731A4082817047028AB5
:1037D0004FF6DF731A400282028A0A430282704760
:1037E00021B1028A42F48042028204E0028A4BF64E
:1037F000FF731A4002827047C1F30802828070474B
:1038000001468888C0F308007047818941F00101B2
:1038100081817047028BD2B20283028B42EA01227D
:1038200002837047028B02F47F420283028B0A43B9
:103830000283704721B1828A42F02002828204E032
:10384000828A4FF6DF731A408282704721B1828AE2
:1038500042F01002828204E0828A4FF6EF731A402F
:103860008282704721B1828A42F00802828204E09B
:10387000828A4FF6F7731A408282704721B182899B
:1038800042F40042828103E08289C2F30E02828107
:10389000704721B1828A42F40062828204E0828A07
:1038A0004FF2FF731A4082827047828A4FF6FB7391
:1038B0001A408282828A0A438282704721B1828AB8
:1038C00042F00202828204E0828A4FF6FD731A40BF
:1038D0008282704702460020B1F5007F00D100BF10
:1038E00013880B400BB1012000E00020704701F469
:1038F0000072B2F5007F00D100BFCA43028070475A
:1039000070B50246002400230025002040F66A1608
:10391000B14200D100BFC1F3421501F01F030126DF
:1039200006FA03F3012D02D19689334006E0022DF9
:1039300002D1168A334001E0968A33400C120126E8
:1039400006FA04F41688344013B10CB1012000E0EB
:10395000002070BD10B50022002340F66A14A14279
:1039600000D100BF0A1201249440A3B2DC430480BA
:1039700010BD0000003801400044004000480040F5
:10398000004C00400050004031490143314A116071
:10399000704770B5002100230F22C47804B32D4C6A
:1039A000246804F4E064C4F5E064210AC1F104036E
:1039B000CA40447804FA03F1847814402143090191
:1039C000254C0678A155047804F01F050124AC406D
:1039D00005786D11AD0005F1E025C5F8004109E05D
:1039E000047804F01F050124AC401C4D06787611C4
:1039F00045F8264070BD1A4A0A400243154B1B1F6A
:103A00001A60704739B1134A121D12680243114BF4
:103A10001B1D1A6006E00F4A121D126882430D4BEF
:103A20001B1D1A607047042808D14FF0E021096976
:103A300041F004014FF0E022116107E04FF0E02176
:103A4000096921F004014FF0E02211617047000084
:103A50000000FA050CED00E000E400E080E100E089
:103A600080FFFF1F10B50446FE48844208D10121A3
:103A7000C014FFF73BFD0021E014FFF737FDC4E061
:103A8000B4F1804F08D101210846FFF73CFD002129
:103A90000120FFF738FDB8E0F348844208D1012146
:103AA0000220FFF730FD00210220FFF72CFDACE0E3
:103AB000EE48844208D101210420FFF724FD0021B3
:103AC0000420FFF720FDA0E0E948844208D101214D
:103AD0000820FFF718FD00210820FFF714FD94E0EF
:103AE000E448844208D101211020FFF70CFD002199
:103AF0001020FFF708FD88E0DF48844208D101214B
:103B00002020FFF700FD00212020FFF7FCFC7CE0D7
:103B1000DA48844208D101214014FFF7E7FC002174
:103B20006014FFF7E3FC70E0D548844209D101211D
:103B3000C804FFF7DBFC00214FF40020FFF7D6FCA0
:103B400063E0D048844209D101210805FFF7CEFC8B
:103B500000214FF48010FFF7C9FC56E0CA488442A8
:103B600009D101214805FFF7C1FC00214FF40010E5
:103B7000FFF7BCFC49E0C548844208D10121402040
:103B8000FFF7C1FC00214020FFF7BDFC3DE0C0482D
:103B9000844208D101218020FFF7B5FC002180205C
:103BA000FFF7B1FC31E0BB48844208D10121801508
:103BB000FFF7A9FC0021A015FFF7A5FC25E0B648FA
:103BC000844209D101210804FFF790FC00214FF441
:103BD0008030FFF78BFC18E0B048844209D1012106
:103BE0004804FFF783FC00214FF40030FFF77EFC10
:103BF0000BE0AB48844208D101218804FFF776FC32
:103C000000214FF48020FFF771FC10BD00220288D4
:103C1000944B98420ED0994B98420BD0B0F1804F04
:103C200008D0914B984205D0904B984202D0904BCF
:103C3000984204D14FF68F731A404B881A438D4B2C
:103C4000984207D08C4B984204D04FF6FF431A405D
:103C5000CB881A4302808B8883850B880385814B30
:103C600098420BD0854B984208D08B4B984205D098
:103C70008A4B984202D08A4B984201D10B7A038634
:103C800001238382704770B5002400220023058C35
:103C90004FF6FE7635400584028C8388048B4FF600
:103CA0008F752C40B51E2C400D882C43751E2A4064
:103CB0000D892A434D882A436A4DA8420BD06F4D87
:103CC000A84208D0744DA84205D0744DA84202D035
:103CD000734DA84213D14FF6F7752A404D892A43F8
:103CE0004FF6FB752A408D882A434FF6FF652B401F
:103CF0004FF6FF552B408D892B43CD892B43838075
:103D00000483CD888586028470BD70B500240022AE
:103D10000023058C4FF6EF7635400584028C8388AE
:103D2000048B48F6FF752C404FF6FF452C400D885C
:103D30004FF6FF7606EA05252C434FF6DF752A403D
:103D40000D8906EA05152A434D8806EA05152A431A
:103D5000444DA84202D0494DA8421DD14FF67F756F
:103D60002A404D894FF6FF7606EA05152A434FF69D
:103D7000BF752A408D8806EA05152A434FF6FF35A0
:103D80002B404FF2FF752B408D8906EA85052B43AA
:103D9000CD8906EA85052B4383800483CD8805877A
:103DA000028470BD70B5002400220023058C4FF6FC
:103DB000FF6635400584028C8388848B4FF68F75AF
:103DC0002C404FF6FC752C400D882C434FF6FF55C8
:103DD0002A400D894FF6FF7606EA05252A434D88CD
:103DE00006EA05252A431F4DA84202D0234DA842CA
:103DF0001DD14FF2FF752A404D894FF6FF7606EA36
:103E000005252A434FF6FF352A408D8806EA052509
:103E10002A434EF6FF752B404DF6FF752B408D89DA
:103E200006EA05152B43CD8906EA05152B43838049
:103E30008483CD888587028470BD70B500220023FD
:103E40000024058C4EF6FF7635400584038C84886B
:103E5000828B48F6FF752A404FF6FF452A400D88B1
:103E600020E00000002C0140000400400008004059
:103E7000000C0040001000400014004000340140DD
:103E8000004C014000500140005401400018004027
:103E9000001C004000200040004001400044014060
:103EA000004801404FF6FF7606EA05252A434DF605
:103EB000FF752B400D8906EA05352B434D8806EA30
:103EC00005352B43FA4DA84202D0FA4DA84208D13D
:103ED0004BF6FF752C408D894FF6FF7606EA851567
:103EE0002C4384808283CD88A0F84050038470BD29
:103EF000828B4FF2FF331A408283828B4FF6FF731F
:103F000003EA01231A4382837047F0B50C46154635
:103F1000002200210026078C4EF6FF7C07EA0C07E2
:103F20000784828B018C4FF6FF7707EA043640F650
:103F3000FF473A404FF6FF7707EA05273A434FF627
:103F4000FF7707EA03373A43D94FB8420ED0D94F2B
:103F5000B8420BD0B0F1804F08D0D74FB84205D04F
:103F6000D64FB84202D0D64FB84206D14DF6FF77B1
:103F7000394046F48057394305E047F6FF5739404A
:103F800044F48057394382830184F0BD828B4FF61D
:103F9000F3731A408283828B0A4382837047F0B5A1
:103FA0000C461546002200210026078C4FF6FF6CB8
:103FB00007EA0C070784828B018C4FF6FF7707EA2C
:103FC00004264FF60C773A404FF6FF7707EA0317BF
:103FD0002F433A43B64FB8420ED0B64FB8420BD03B
:103FE000B0F1804F08D0B44FB84205D0B34FB842BB
:103FF00002D0B34FB84206D14FF6FF57394046F4CE
:104000008077394305E04FF2FF57394044F4807719
:10401000394382830184F0BD028B4FF2FF331A4093
:104020000283028B4FF6FF7303EA01231A430283D4
:104030007047F0B50C461546002200210026078C7B
:104040004FF6EF7C07EA0C070784028B018C4FF6D2
:10405000FF7707EA041640F6FF473A404FF6FF772E
:1040600007EA03373A434FF6FF7707EA05273A4353
:104070008F4FB8420ED08F4FB8420BD0B0F1804F67
:1040800008D08D4FB84205D08C4FB84202D08C4F2B
:10409000B84206D14FF6DF77394046F01007394372
:1040A00005E04FF65F77394044F01007394302834B
:1040B0000184F0BD028B4FF6F3731A400283028B2A
:1040C0000A4302837047F0B50C46154600220021D2
:1040D000068C4FF6FE773E400684028B018C4FF62D
:1040E0000C7632407E1C06EA03162E433243704E95
:1040F000B0420ED06F4EB0420BD0B0F1804F08D01E
:104100006D4EB04205D06D4EB04202D06C4EB04202
:1041100006D14FF6FD76314044F00106314305E00B
:104120004FF6F576314044F00106314302830184B5
:10413000F0BD70B505460C465D4885420ED05D4821
:1041400085420BD0B5F1804F08D05B48854205D041
:104150005A48854202D05A48854200D100E000BF4B
:10416000208850B92389A28861882846FFF7ABFFD1
:10417000E1882846FFF79EFF25E0208804280AD121
:104180002389A28861882846FFF753FFE1882846E3
:10419000FFF742FF17E0208808280AD12389A28868
:1041A00061882846FFF7FBFEE1882846FFF7EEFE10
:1041B00009E02389A28861882846FFF7A6FEE188E6
:1041C0002846FFF795FE70BD2DE9F04105460C46E7
:1041D00000260127608808B9022600E00026A08892
:1041E000012801D1022700E001272088A0B92389F6
:1041F000A28861882846FFF766FFE1882846FFF716
:1042000059FF23893A4631462846FFF712FFE188D5
:104210002846FFF701FF13E02389A288618828461A
:10422000FFF707FFE1882846FFF7F6FE23893A46A5
:1042300031462846FFF747FFE1882846FFF73AFF57
:10424000BDE8F0810A884B881A438B881A43CB88D3
:104250001A430B891A434B891A438B891A43A0F8D6
:10426000442070474FF6FF71818000210180C1809A
:104270004180017270470021018041808180C180AE
:10428000018141818181C18170470021018041808C
:10429000012181800021C1800181704700210180BE
:1042A00041808180C180018141818181704700000E
:1042B000002C014000340140000400400008004090
:1042C000000C004021B1028842F00102028004E0AB
:1042D00002884FF6FE731A400280704731B1B0F881
:1042E000442042F40042A0F8442005E0B0F8442005
:1042F000C2F30E02A0F8442070471AB183890B4321
:10430000838102E083898B43838170478182704778
:1043100041EA0203A0F8483070471AB183890B4381
:10432000838102E083898B438381704701894FF643
:10433000F8721140018170470A46002101894FF649
:104340008F73194011430181704730B504460D4603
:1043500029462046FFF7F0FF208940F00700208122
:1043600030BD2DE9F04104460D4616461F46602D2E
:1043700006D13B46012231462046FFF75AFE05E0B2
:104380003B46012231462046FFF79DFE2946204646
:10439000FFF7D2FF208940F007002081BDE8F081BF
:1043A00030B50C4600210189C9B24FF6FF7505EA08
:1043B0000325154325432943018130BD2DE9F041F3
:1043C00005460E4617469846002443463A4631466F
:1043D0002846FFF7E5FF2C894FF6F870044044F0BB
:1043E00007044FF68F70044044F070042C81BDE840
:1043F000F081F0B504460D4616461F463B46324650
:1044000029462046FFF7CCFF208940F480402081D8
:10441000F0BD0185828270470A46002101884FF66F
:104420008F731940114301807047F0B50C46154653
:104430001E460021002200230189028B038C4FF6C7
:10444000F877394021434FF6FC473A4040F20117D4
:104450003A434FF6DD773B404FF6FF7707EA061702
:104460002F433B43018102830384F0BD0A460021B0
:10447000018B4FF68F7319401143018370470A4631
:104480000021018B48F6FF7319404FF6FF7303EAD2
:1044900002231943018370470A460021818B4FF69E
:1044A0008F7319401143818370470A460021818B25
:1044B00048F6FF7319404FF6FF7303EA02231943CE
:1044C0008183704721B1028842F08002028004E0BB
:1044D00002884FF67F731A400280704721B18288AC
:1044E00042F00402828004E082884FF6FB731A4097
:1044F0008280704721B1828842F00802828004E005
:1045000082884FF6F7731A408280704721B1828803
:1045100042F00102828004E082884FF6FE731A4066
:10452000828070470A460021018B4FF6F7731940CD
:104530001143018370470A460021018B4FF2FF733C
:1045400019404FF6FF7303EA0223194301837047B2
:104550000A460021818B4FF6F7731940114381837E
:1045600070470A460021818B4FF2FF7319404FF6C6
:10457000FF7303EA02231943818370470A4600212F
:10458000018B4FF6FB7319401143018370470A46B4
:104590000021018B4FF6FF3319404FF6FF7303EAFA
:1045A00002231943018370470A460021818B4FF68D
:1045B000FB7319401143818370470A460021818BA8
:1045C0004FF6FF3319404FF6FF7303EA02231943F6
:1045D000818370470A460021018B4FF67F73194093
:1045E0001143018370470A460021018BC1F30E017C
:1045F0004FF6FF7303EA02231943018370470A460B
:104600000021818B4FF67F731940114381837047DE
:104610000A460021818BC1F30E014FF6FF7303EAB6
:1046200002231943818370470A460021018C4FF60B
:10463000FD7319401143018470470A460021018C23
:104640004FF6F77319401143018470470A46002161
:10465000018C4FF6DF7319404FF6FF7303EA021324
:104660001943018470470A460021018C4FF67F737D
:1046700019404FF6FF7303EA021319430184704790
:104680000A460021018C4FF6FF5319404FF6FF7385
:1046900003EA02231943018470470A460021018C72
:1046A0004FF2FF7319404FF6FF7303EA02231943D9
:1046B000018470470A460021018C4DF6FF731940B2
:1046C0004FF6FF7303EA023319430184704730B594
:1046D000002301248C40A3B2048C9C430484048CEA
:1046E00002FA01F5ADB22C43048430BD30B500238D
:1046F00004248C40A3B2048C9C430484048C02FAEE
:1047000001F5ADB22C43048430BD70B503460020E2
:1047100000241846183001258D40ACB21D8CA543ED
:104720001D8409B1082909D100EB6100056825F055
:10473000700505600568154305600EE00D1FC5F3A3
:104740004E052844056825F4E045056005684FF6E8
:10475000FF7606EA02263543056070BD21B1028866
:1047600042F00202028004E002884FF6FD731A4014
:104770000280704721B1028842F00402028004E006
:1047800002884FF6FB731A400280704721B182887D
:1047900042F08002828004E082884FF67F731A40E4
:1047A0008280704702884FF6F7731A4002800288B1
:1047B0000A430280704782884FF68F731A408280C6
:1047C00082880A438280704702894FF6F8731A4044
:1047D000028102890A430281704702894FF67F7382
:1047E0001A40028102890A4302817047818470471E
:1047F0008185704781867047018770478187704740
:10480000A0F84010704702884FF6FF431A4002801C
:1048100002880A43028070470146888E704701462D
:10482000088F70470146888F70470146B1F84000F5
:1048300070470146888C70470146088D70470246D4
:104840000020138A0B400BB1012000E000207047CC
:10485000CA430282704730B502460020002300247C
:10486000158A05EA0103958905EA010413B10CB123
:10487000012000E0002030BDCA430282704770472B
:104880000FB4044910B503AA029800F059FB10BCFC
:104890005DF814FB3C0000200FB41CB5074B06AAC2
:1048A0007B4469460090059800F01BFB0020694698
:1048B00000F02AFB1CBC5DF814FB0000650600003C
:1048C0002DE9F0410E460446002020622046E168B2
:1048D000884730B3252805D0D4E901219047206AC4
:1048E000401CF2E7E168204600278847050018D001
:1048F000A5F14100192802D820354FF4006732464F
:10490000294620462760FBF74DFC40B1012804D022
:10491000F61D26F007060836D8E7361DD6E72846E6
:10492000DAE7206ABDE8F08170B50C460546012A39
:1049300005D02878800600D5EA69002302E001232B
:1049400005E05B1C934202D2E05C0028F9D1A86923
:10495000E618C01AA861286A184428622846AFF3EE
:10496000008004E0D5E9012114F8010B9047B4421E
:10497000F8D32846AFF3008070BD00002DE9F04168
:104980000646002410687529314615A510D0AFF3EE
:104990000080002802DA404212A507E031688A0749
:1049A00001D511A502E0490704D510A5012401E0B5
:1049B000AFF3008000210A2306F1240707E0B0FBD3
:1049C000F3F203FB1200303078541046491C0028E3
:1049D000F5D123462A463046BDE8F04100F017B82D
:1049E000000000002D0000002B000000200000004F
:1049F000704770477047704710B500F0B7FA00680D
:104A000010BD10B5044600F0B1FA046010BD2DE9E8
:104A1000F0470D4699469246044600F12408016885
:104A2000880604D5E06921F01001216000E0012032
:104A3000A84201DD471B00E00027A1697A1902EBBB
:104A40000900081AA0612078C00602D42046AFF3FE
:104A50000080002608E0D4E901211AF806009047FA
:104A6000206A401C761C20624E45F4DB2078C0068C
:104A70000AD52046AFF3008006E0D4E901213020BA
:104A80009047206A401C2062381EA7F10107F4DC21
:104A900007E0D4E9012118F805009047206A401C7E
:104AA0002062281EA5F10105F3DC2046AFF300804B
:104AB0002078000602D50220BDE8F0870120FBE740
:104AC00070472DE9FF4F0C461E464FF0FF378BB065
:104AD000D2E90001DDF860800A908A46C1F30A55E8
:104AE00005B93D46002108464FF00000BAF1000F1D
:104AF00000F4400005DA00EB80004FF4400101EAC9
:104B000050004FEA9059B9F1010F00DDB9460A98FB
:104B100050EA4A000ED044F61050A5F2FF35454346
:104B20002F14B8F1000F1ED07542291E1EDDC9F1E9
:104B300000021CE0B8F1010F4FF0000001D030215D
:104B400003E0F24305E02154401CB042FBDB304659
:104B50000022002121540B99C1F80880C1E90020EE
:104B60000FB0BDE8F08FBD1B6D1CDEE74A4600DAD2
:104B7000694206A800F084FA06AB93E8070003AB8D
:104B800083E8070050460A9900F05AFB8DE80700B9
:104B9000A0F500501F3800900398002D09DD42F267
:104BA0001F014A46084403A90390684600F0B9FD76
:104BB00008E0A0F500504A461F3803A90390684654
:104BC00000F0C3FD8DE807000004000C03D04FF097
:104BD000FF30410800E01046B8F1000F03D000227A
:104BE000009215461EE0751E05D400F0C3F9303260
:104BF00062556D1EF9D5B3460122084302D000224A
:104C00007F1C04E02078302801D100227F1E002A7A
:104C1000099786D01DE0112D07DA00F0ABF930328C
:104C200062556D1C50EA0102F5D1084302D000988C
:104C3000C8B10EE00021681E05E0235C625C63548D
:104C40002254401E491C8142F7DBAB46A81B401E84
:104C50000990002004F80B000B98099AC0F808800E
:104C6000C0E9002B7CE711264FF0000859E72DE939
:104C7000F04F88460446D21D22F0070191B0D1E9D9
:104C80000001CDE90A0100F096FE02460B98C00F24
:104C900001D02D2007E02068810701D52B2002E0FC
:104CA000202101EAC000032A099001D0072A05DB70
:104CB00003464146204600F0A3F909E1207880062A
:104CC00001D5E06900E00620B8F1650F814606D005
:104CD000B8F1660F18D0B8F1670F70D131E000203D
:104CE000B9F1110F009001DB112301E009F101037B
:104CF0000AAA01A90CA8FFF7E4FEDDE90C70002662
:104D000009F10105834647E001204B4600904FF032
:104D100000470AAA01A90CA8FFF7D3FEDDE90DB0F0
:104D20000C995D46002610B909F101000D18B9EB88
:104D3000050003D4C0F1FF3609F10105A5EB090018
:104D40002BE0B9F1010F01DA4FF001090020B9F1B0
:104D5000110F0090484601DD112300E003460AAA26
:104D600001A90CA8FFF7ADFEDDE90C704D46002649
:104D70008346207800070AD4AB4500DA5D4601A8D7
:104D8000012D04DD411911F8011C302907D04F45D0
:104D900002DA17F1040F04DA012082460FE06D1EDB
:104DA000EEE7002F02DCED1B3E4403E0781CA84236
:104DB00000DD7D1CB81B00F1010A4FF00047207890
:104DC000000703D4AA4501DB4FF0FF3A0021B7F1F9
:104DD000004F0DF143088DF8431022D002202B2301
:104DE000002F01DA7F422D234FF00A0C011EA0F1A3
:104DF000010000DC47B197FBFCF10CFB11720F4680
:104E0000303208F8012DF1E7A8F101000370218884
:104E1000090501D5452100E06521A0F1010800F850
:104E2000011C09980FA9A1EB0807FF1D00B1012083
:104E3000411901EBEA70A1693844081A401EA061CB
:104E40002078C00602D42046AFF30080099828B12C
:104E5000D4E901219047206A401C20622078C006D6
:104E600022D52046AFF300801EE0002E04DBB345C0
:104E700002DD01A8805D00E03020D4E901219047E7
:104E8000206A401C2062761CAAF101005FEA000A39
:104E90000AD100F067F8C0680168405CD4E90121DC
:104EA0009047206A401C2062281EA5F10105DCDC29
:104EB00007E0D4E9012118F8010B9047206A401C53
:104EC0002062381EA7F10107F3DC2046AFF3008013
:104ED000022011B045E6000001694A1C0261087811
:104EE000704700B58FB0CDE901310021059105492A
:104EF0007944CDE9031011466846FFF7E1FC0FB095
:104F000000BD0000E5FFFFFF0A6802F8010B0A6020
:104F1000704710B5436913B1AFF3008001E0FFF7AC
:104F200003FD012010BD127800F124010A70002257
:104F30004A700122EDE711684FF0FF32E9E7000007
:104F4000074B70B50D467B44FFF7CBFF0446284660
:104F500000F002F910B14FF0FF3070BD204670BD77
:104F6000A1DDFFFF00487047140200200048704791
:104F7000F401002030B5B0F10A024FEA900E71F151
:104F800000034EEA817EB0EB0E0061EB91014FEA27
:104F9000101E4EEA017E10EB0E0041EB11114FEA9C
:104FA000102E4EEA016E10EB0E0041EB11214FEA7C
:104FB000104E4EEA014E10EB0E0041EB114140182D
:104FC00041F100014FEAD00040EA41704FEAD101BF
:104FD00010EB80054FEA810444EA907444EB01042D
:104FE0006D1944EB0404521BA3414FF0000348BF6A
:104FF0000A3200D530BD401C41F1000130BD000037
:105000002DE9F0411F46044603260168072A01F4F2
:10501000006004DB08B116A505E016A503E008B1A1
:1050200015A500E015A521F010002060A069C01EA4
:10503000A0610FB1401EA0612046AFF300804FB1C8
:10504000D4E9012138469047206A401C2062C01CE8
:10505000206206E0206AFAE7D4E9012115F8010B85
:105060009047761EF8D22046AFF30080BDE8F0816D
:105070004E414E006E616E00494E4600696E6600FC
:105080002DE9F047814616468AB0324878440DC86B
:105090008DE80D002F487844801C03AC0DC884E8CF
:1050A0000D0041F69B303722014491FBF2F0A0F154
:1050B000800502FB10141B3C02D56442012000E075
:1050C0000020DFF890A080460027FA44AAF1BA0A2F
:1050D0000DE0E00709D03246684607EB47010AEBCE
:1050E000810100F032FB8DE8070064107F1C002C6A
:1050F000EFD1184F7F44A83F18E0E80714D007EB22
:1051000004100DF1180A90E80E008AE80E00C0683D
:10511000F04201D198190890324606A903A800F080
:1051200014FB03AB83E807006D10641C002DE4D171
:1051300032466946B8F1000F03A802D000F0F1FA38
:1051400001E000F002FBC9E90001C9F808200AB03B
:10515000BDE8F0877C250000007B00F080007047F0
:1051600000487047F40100207546FFF7F9FFAE468E
:1051700005006946534620F00700854618B020B563
:10518000FDF76CFEBDE820404FF000064FF0000731
:105190004FF000084FF0000B21F00701AC46ACE8DF
:1051A000C009ACE8C009ACE8C009ACE8C0098D464C
:1051B00070470446AFF300802046FBF713F8000069
:1051C0004FF0013C50F8042B51F8043B9A4221D196
:1051D000A2EB0C03934313EACC1317D150F8042B22
:1051E00051F8043B9A4215D1A2EB0C03934313EA06
:1051F000CC130BD150F8042B51F8043B9A4209D13F
:10520000A2EB0C03934313EACC13DBD04FF0000066
:10521000704700BFD01A01BAB1FA81F101F018014C
:1052200022FA01F0CB40C1F12001DBB2C0B2C01ABA
:105230002CFA01F3D11A914311EAC311E6D1704758
:105240005FEA400C08BF91F0000F4FEA8C234FEA51
:10525000C12243EA51514FEA1C5018BF00F5F040FB
:105260004FEA300018BF41F000415FEA6C5C00F08B
:105270002980BCF1FF3F08BF40F080407047130C0D
:1052800006BF12044FF0100C4FF0000C130E04BFB9
:1052900012020CF1080C130F04BF12010CF1040CE4
:1052A000930F04BF92000CF1020CD30F04BF520005
:1052B0000CF1010C11464FF00002A0F11F00A0EB11
:1052C0000C00704711F0004F08BF704731F00041EB
:1052D0003FF4D5AF0B0C06BF09044FF0100C4FF094
:1052E000000C0B0E04BF09020CF1080C0B0F04BFDD
:1052F00009010CF1040C8B0F04BF89000CF1020CA6
:10530000CB0F04BF49000CF1010CCCF12003A0EB42
:105310000C0022FA03F302FA0CF241EA030100F155
:105320000100704720F07F4C80EA030023F07F47A4
:10533000ACEB070303F57C5300F0004003F1FF03DF
:105340002DE980494FEA154B09B44FEA144325EA89
:105350000B4E24EA03480FF2042606EB13274908F4
:105360003E785FEA320203FB0667C7F5000707FBDA
:1053700006F64FEA54374FEAD64606F1020607FB17
:10538000066CCCF1005C4FEA1C472CEA074C07FB8B
:1053900006F40CFB06F504EB15464FEA961634BFEF
:1053A00000204FF000404FEAD13706FB07FC4FEAE0
:1053B0001C4C0CFB0BF7D21B03FB0CF761EB07013A
:1053C0000CFB0EF7B0EB074072EB17420CFB08F733
:1053D00034BFA2EB0742B2EB074261EB17414FEA41
:1053E0000C444FEA910706FB07FC4FEA1C4C0CFBF0
:1053F0000BF7B0EBC74072EB573203FB0CF734BF2F
:10540000A2EBC742B2EBC74261EB57310CFB0EF780
:10541000B0EBC70072EB57720CFB08F734BFA2EB7E
:10542000C702B2EBC70261EB5771039F4FEA81617C
:1054300041EA921104EBCC044FEAD1374FEA826281
:1054400006FB07FC42EA90124FEA80604FEA1C4CD0
:105450000CFB0BF7D21B03FB0CF761EB07010CFBFA
:105460000EF7B0EB074072EB17420CFB08F734BFA6
:10547000A2EB0742B2EB074261EB17414FEA8C55B2
:105480004FEA910704EB9C2406FB07FC4FEA1C4CF7
:105490000CFB0BF7B0EBC74072EB573203FB0CF77A
:1054A00034BFA2EBC742B2EBC74261EB57310CFBF2
:1054B0000EF7B0EBC70072EB57720CFB08F734BF66
:1054C000A2EBC702B2EBC70261EB577115EB4C259B
:1054D0004FEA816141EA92114FEA82624FEAD13785
:1054E00042EA901206FB07FC44F100044FEA806098
:1054F0004FEA1C4C0CFB0BF7D21B03FB0CF761EBC8
:1055000007010CFB0EF7B0EB074072EB17420CFBE8
:1055100008F734BFA2EB0742B2EB074261EB174139
:1055200015EB1C154FEA813141EA92414FEA823274
:1055300042EA90424FEA80304FEA0C7644F1000490
:1055400048EA03434EEA0B484FF0000EB2EB080C5A
:1055500071EB030724BF624639464EEB0E0E4FF047
:10556000000B0018524149414BEB0B0BB2EB080CFE
:1055700071EB03077BF1000B24BF624639464EEB0B
:105580000E0E4FF0000B0018524149414BEB0B0B34
:10559000B2EB080C71EB03077BF1000B24BF6246F2
:1055A00039464EEB0E0E51EA020718BF46F00106CF
:1055B00016EB0E7655F1000254F1000103D5BDE85B
:1055C0008901BDE80088BDE88901B619BDE8004839
:1055D000524141EB0101A3F10103704780807F7EBE
:1055E0007D7C7B7A79787776767574737271717059
:1055F0006F6E6E6D6C6C6B6A6A696868676666650B
:105600006464636362616160605F5F5E5E5D5D5C98
:105610005C5B5B5A5A595958585757565655555509
:105620005454535352525251515050504F4F4F4E69
:105630004E4D4D4D4C4C4C4B4B4B4A4A4A494949B7
:1056400048484847474747464646454545444444F9
:10565000444343434342424242414141002B26D40A
:10566000770021D01CB54FEA370703B44FF0100084
:105670004FF010014FF000000FBC0BF1010BBDE823
:105680001040BBF1010F08BF5FEA170722BF12F1FC
:10569000010211F101014FF0004143F1000300F05C
:1056A000004043EA00007047F9D35708DAE746EABA
:1056B000064613F1400F4FEA16461FDD13F1200F87
:1056C000DFBF16430A46002120335B42C8D0C3F136
:1056D000200746EA064602FA07F74FEA164646EA68
:1056E0000706C3F1200722FA03F201FA07F721FAAD
:1056F00003F14FF0000342EA0702B1E746EA02066F
:1057000046EA06464FEA164646EA0106BCBF46EAA6
:105710000646360C4FF000034FF000024FF0000138
:105720009EE72DE9C048934630B491E8380007C899
:1057300031EA400C48BF34EA430C03D5FFF7F2FDD1
:10574000FFF78CFFF0BCBDE800882DE9C048934608
:1057500030B491E8380007C810F0804F08BF13F04C
:10576000804F03D100F005F8FFF778FFF0BCBDE8EB
:10577000008820F07F4780EA030023F07F4C07EB8E
:105780000C03A3F57C5300F00040A3F1FE0392F05C
:10579000000F00F0B38095F0000F00F077802DE946
:1057A00001494FEA11404FEA144621EA004800FB44
:1057B00006FC24EA064708FB06F607FB08F800FB90
:1057C00007F718EB06484CEB164C4FEA124B18EB58
:1057D00007484FEA15464CEB174022EA0B4E0BFBED
:1057E00006FC25EA06470EFB06F607FB0EFE0BFB42
:1057F00007F71EEB064E4CEB164C4FF000061EEB67
:10580000074E4CEB174B18EB0B0840F1000018EB60
:105810000E0B58EB000840F100008F1A4FF000010A
:105820003CBFC943661B14BFB5EB040C00213CBF51
:10583000C943F61B4FEA17444EEA8E0E27EA044589
:105840004FEA1C4704FB07622CEA074C05FB07F7ED
:105850000CFB05F604FB0CFC16EB074642EB17426B
:1058600016EB0C4642EB1C421BEB060658EB020201
:10587000414146EA9E0601D5BDE80189B61952416B
:1058800041EB0101A3F10103BDE801894FEA144591
:105890004FEA114724EA054621EA074C05FB07F4C5
:1058A00006FB07F70CFB06F105FB0CFC11EB0741AF
:1058B00044EB17444FEA124711EB0C4144EB1C44F4
:1058C00022EA074C05FB07F206FB07F70CFB06F67E
:1058D00005FB0CFC16EB074642EB174216EB0C4699
:1058E00042EB1C456A1854F1000148BF7047B619D5
:1058F000524141EB0101A3F10103704795F0000F04
:1059000037D04FEA11424FEA144721EA024624EA0F
:10591000074C02FB07F106FB07F70CFB06F402FB42
:105920000CFC14EB074441EB17414FEA154714EB0D
:105930000C4441EB1C4125EA074C02FB07F506FB32
:1059400007F70CFB06F602FB0CFC16EB074645EBD3
:10595000174516EB0C4645EB1C42121951F100019C
:1059600048BF7047B619524141EB0101A3F1010351
:1059700070474FEA14454FEA114724EA054621EAE9
:10598000074C05FB07F106FB07F70CFB06F24FF08F
:10599000000605FB0CFC12EB074241EB174112EB32
:1059A0000C4251EB1C4148BF7047921841EB01017A
:1059B000A3F101037047490050EAC12018BF042039
:1059C0004A0D18BF40F0010040F2FF72B2EB515F88
:1059D00008BF40F00200012808BF052070472DE9EC
:1059E000F0414F1E00EBC7010446D1E90001154606
:1059F0001E4637F006020DD02A46334601F020F944
:105A00007F1E04EBC703D3E9002300F083FE37F0C9
:105A10000602F1D1022F25D0042F13D0062F18BF74
:105A2000BDE8F0812A46334601F00AF9D4E90A2399
:105A300000F070FE2A46334601F002F9D4E908234B
:105A400000F068FE2A46334601F0FAF8D4E906234E
:105A500000F060FE2A46334601F0F2F8D4E9042350
:105A600000F058FE2A46334601F0EAF8D4E9022352
:105A700000F050FE2A46334601F0E2F8D4E9002354
:105A8000BDE8F04100F046BE024A0020110701F0D7
:105A9000A5BC000001FDFFFF2DE9F84F04460D46AF
:105AA00021F0004000917449814213DC734988421F
:105AB00001DC08D13CB120462946BDE8F84F4FF043
:105AC000010201F08BBC6E48002DCCBF6D496E49C0
:105AD000BDE8F88F6D49814211DD6D498142D8BF23
